:020000040800F2
:1000000078060020CD01000857080008990600086E
:10001000B5070008ED020008350C000800000000DC
:10002000000000000000000000000000750900084A
:10003000D504000800000000BD080008510A0008AF
:10004000E7010008E7010008E7010008E7010008F0
:10005000E7010008E7010008E7010008E7010008E0
:10006000E7010008E7010008E7010008E7010008D0
:10007000E7010008E7010008E7010008E7010008C0
:10008000E7010008E7010008E7010008E7010008B0
:10009000E7010008E7010008E7010008E7010008A0
:1000A000E7010008E7010008E7010008E701000890
:1000B000950A0008E7010008E7010008E7010008C9
:1000C000E7010008E7010008E7010008E701000870
:1000D000E7010008E7010008E7010008E701000860
:1000E0005B050008E7010008E7010008E7010008D8
:1000F000E7010008E7010008E7010008E701000840
:10010000E7010008E7010008E7010008E70100082F
:10011000E7010008E7010008E7010008E70100081F
:10012000E7010008E7010008E7010008E70100080F
:1001300000F002F800F03AF80AA090E8000C8244BF
:100140008344AAF10107DA4501D100F02FF8AFF29C
:10015000090EBAE80F0013F0010F18BFFB1A43F0A5
:1001600001031847640B0000840B0000103A24BF01
:1001700078C878C1FAD8520724BF30C830C144BF0C
:1001800004680C607047000000230024002500264E
:10019000103A28BF78C1FBD8520728BF30C148BFEA
:1001A0000B6070471FB51FBD10B510BD00F031F8D2
:1001B0001146FFF7F7FF00F061FD00F04FF803B4C0
:1001C000FFF7F2FF03BC00F053F800000948804736
:1001D00009480047FEE7FEE7FEE7FEE7FEE7FEE729
:1001E000FEE7FEE7FEE7FEE704480549054A064B41
:1001F00070470000550A000831010008780000200F
:1002000078060020780200207802002070477047AE
:100210007047754600F028F8AE460500694653461B
:1002200020F00700854618B020B5FFF7DDFFBDE8D8
:1002300020404FF000064FF000074FF000084FF04D
:10024000000B21F00701AC46ACE8C009ACE8C009DE
:10025000ACE8C009ACE8C0098D4670470446AFF36E
:1002600000802046FFF7ABFF0048704714000020D5
:1002700001491820ABBEFEE72600020070470000CF
:1002800070B50421174800F0FCF945B280211648EA
:1002900000F0F7F944B224B11DB1BDE8704000F0A0
:1002A0003BB800F025F84FF4FA7000F04BF92C43FE
:1002B0000CD000F0E7F84FF4167000F043F900F0AE
:1002C0002BF8BDE87040642000F03CB900F010F855
:1002D0004FF4967000F036F900F0D4F84FF4C8707F
:1002E000EBE700000020014000100140FEE70000A5
:1002F00005496FF03100087004490870044908701E
:100300000449087070470000040000200500002028
:100310000600002007000020044919200870044945
:1003200008700449087004490870704704000020F0
:100330000500002006000020070000202DE9F04104
:100340004848494C4FF4005190F90020474D8F1018
:100350002068002A1ADD904203D2284600F09AF95C
:1003600002E0284600F094F93946284600F090F95A
:100370003F48414E90F900103E48002928DD226890
:100380008A420FD2394600F085F90EE0E9DA52428E
:100390009042E6D2284600F07BF93946284600F024
:1003A00079F9E5E7394600F073F90121304600F0AC
:1003B0006FF932484FF4007790F90000002829DDEA
:1003C0002168814211D24021304600F063F910E0EB
:1003D000E8DA226849428A42E4D2394600F058F904
:1003E0000121304600F056F9E3E74021304600F0A5
:1003F0004FF93946284600F04BF9214890F90000A2
:10040000002815DD2168814221D21021304600F0FC
:1004100041F920E0E9DA216840428142E5D24021F9
:10042000304600F035F93946284600F033F9E4E764
:100430000DDA21684042814209D21021304600F095
:1004400027F93046BDE8F041042100F023B910211E
:10045000304600F01DF93046BDE8F041042100F0BF
:1004600017B9000004000020000000200020014017
:10047000050000200010014000140140060000208B
:100480000700002006492820074A087005496FF038
:100490001300087032211170044908707047000081
:1004A00004000020050000200600002007000020B6
:1004B0000449002008700449087004490870044980
:1004C000087070470400002005000020060000208E
:1004D00007000020704710B5044602E08C2000F0B1
:1004E00005F8641EE4B2F9D210BD000031B50C4D20
:1004F0000098012184B2284600F02CFB21462846B2
:1005000000F048FB03E0284600F02EFB0446012CD7
:10051000F9D82846BDE83840002100F01BBB000098
:100520000004004000EBC0014FF0E0204161016990
:1005300041F0010101610169C903FCD5002101619C
:100540008161704700B502464FF47A7302E01846A5
:10055000FFF7E8FF521EFAD200BD10B54FF48064D9
:10056000204600F011F8002806D0204600F006F8DA
:10057000BDE8104000F092B810BD000001490860CD
:100580007047000014040140064A0146002012682A
:10059000044B0A4014331B680B4202D0002A00D0DF
:1005A000012070470004014010B50121042000F033
:1005B00093F90121082000F08FF90121102000F0AB
:1005C0008BF90121202000F087F90121402000F063
:1005D00083F90121802000F07FF90121BDE810405E
:1005E000080200F079B9F0B5CC78002204F00F03CE
:1005F000E40601D58C7823430C784FF00F0C14F0EF
:10060000FF0F4FF0010E1BD005680E880EFA02F4A2
:100610002640A64210D196000CFA06F725EA0707F5
:1006200003FA06F5CE783D43282E02D0482E02D09C
:1006300002E0446100E00461521C082AE5D3056031
:100640000A88FF2A1CD94468002202F108060EFA23
:1006500006F50E882E40AE420ED196000CFA06F733
:10066000BC4303FA06F7CE783C43282E00D14561FF
:10067000CE78482E00D10561521C082AE5D344608B
:10068000F0BD0246002092680A4200D00120704767
:100690004161704701617047FEE700002DE9F047B6
:1006A00000240F20FFF717FF3A4E4FF480673946BA
:1006B0003046FFF7E6FF012865D03749282008704B
:1006C00002E00120FFF707FF39463046FFF7D9FF68
:1006D0000028F6D0DFF8C4900025B046002602E0DE
:1006E0000120FFF7F8FE39464046FFF7CAFF002811
:1006F000F6D102E00120FFF7EEFE39464046FFF753
:10070000C0FF0028F6D006E00120FFF7E4FE641CDD
:10071000E4B21E2C37D239464046FFF7B2FF00281C
:10072000F2D119F805004946400809F80500082CDF
:1007300003D340F0800009F80500761C0024F6B2CF
:10074000082ED0D36D1CEDB2042DC7D3C97899F80B
:100750000200C943C9B2884215D11149432816D0B5
:1007600005DC152809D040280DD1492006E0442891
:100770000BD0462807D1412000E0422008700749ED
:100780000120491E0870BDE8F0874320F6E74420A9
:10079000F4E70000001401400C0000200E000020CF
:1007A0000B0000200249CA684240CA60704700003E
:1007B00000200140FEE70000F8B54FF40050ADF80E
:1007C000000002208DF802001C4E10248DF803401A
:1007D00069463046FFF707FFE501ADF8005069466E
:1007E0003046FFF700FFADF8005069461448FFF7A8
:1007F000FAFE0120134DADF8000069462846FFF7C8
:10080000F2FE4020ADF8000069462846FFF7EBFEF7
:100810006001ADF8000069463046FFF7E4FEADF830
:10082000004069462846FFF7DEFE0420ADF80000D0
:1008300069462846FFF7D7FEF8BD000000200140BA
:10084000001001400014014010B5FFF7B5FFBDE8EE
:100850001040FFF72DBE704730B50F23C2780178E6
:100860000125F2B1144A126801F1E02102F4E062BC
:10087000C2F5E062120AC2F10404D3404278A240F9
:1008800084781C401443220181F80024007800F091
:100890001F018D404009800000F1E020C0F80051A8
:1008A00030BD01F01F0085404809800000F1E020C4
:1008B000C0F8805130BD00000CED00E07047000032
:1008C000044A0029D16901D0014300E08143D1618C
:1008D0007047000000100240044A0029916901D0CD
:1008E000014300E081439161704700000010024025
:1008F000F8B54FF48070ADF8000048251B4E8DF818
:10090000035003248DF8024069463046FFF76BFE22
:100910004020ADF800008DF803508DF80240694684
:100920003046FFF760FE1020ADF800008DF8035050
:100930008DF8024069463046FFF755FE8020ADF83D
:1009400000008DF803508DF8024069460848FFF713
:100950004AFE0420ADF800008DF803508DF80240E7
:1009600069463046FFF73FFEF8BD00000020014019
:10097000001001407047000038B54FF48054ADF8C6
:10098000004010208DF803000320064D8DF8020072
:1009900069462846FFF727FE21462846FFF77AFEDC
:1009A00038BD0000001401400CB50022264800921A
:1009B0000192016841F4803101604FF4A063016845
:1009C00001F4003101910099491C0091019911B97C
:1009D00000999942F3D10168890333D5012101912E
:1009E0001A490A6842F010020A600A6822F00302FB
:1009F0000A600A6842F002020A6041684160416888
:100A00004160416841F480614160416821F47C119A
:100A10004160416841F4E8114160016841F0807132
:100A2000016001688901FCD5416821F00301416042
:100A3000416841F0020141604168C1F3810102292E
:100A4000FAD10CBD01920CBD001002400020024002
:100A5000704700000C48016841F0010101604168E5
:100A60000A4A114041600168094A11400160016869
:100A700021F480210160416821F4FE0141604FF4BE
:100A80001F018160FFF790BF001002400000FFF8D7
:100A9000FFFFF6FE10B501218C07204600F066F836
:100AA00000281BD00121204600F051F80C4908789D
:100AB000401CC0B208700A2810D300240C700949E9
:100AC000094A0868401C086013785B1C13703228C0
:100AD00000D30C60BDE81040FFF730BC10BD000033
:100AE0000A00002000000020080000207FB501213E
:100AF0000846FFF7E5FE6320ADF804004720ADF897
:100B0000000000244FF08045ADF80640ADF80240EB
:100B10006946284600F040F80121284600F017F801
:100B200001221146284600F02DF80121284600F048
:100B300011F81C208DF80C008DF80D4001208DF867
:100B40000E008DF80F0003A8FFF786FE7FBDC94396
:100B5000018270470029018802D041F0010101E0C3
:100B600021F0010101807047808C7047024600200F
:100B7000138A92890B4202EA010202D0002A00D0B5
:100B800001207047002A828901D00A4300E08A438D
:100B9000828170478184704730B502881B4C1C4DA0
:100BA000A0420DD0A8420BD0B0F1804F08D0194B15
:100BB000984205D0184B984202D0184B984203D166
:100BC00022F070034A881A43154B984206D0154B01
:100BD000984203D022F44073CA881A4302808A885C
:100BE00082850A880285A0420AD0A84208D00E4A0F
:100BF000904205D00D4A904202D00D4A904201D158
:100C0000097A01860121818230BD0000002C01405B
:100C1000003401400004004000080040000C004087
:100C2000001000400014004000400140004401401A
:100C300000480140FEE7000008B54FF40040ADF861
:100C4000000010208DF8030003208DF80200694693
:100C50000448FFF7C8FC4FF480510348FFF71AFD22
:100C600008BD000000200140001401404FF0E020CA
:100C7000016921F00401016170470000FFF7F6FFF0
:100C8000FFF792FCFFF7D8FFFFF730FFFFF7DCFD1F
:100C9000FFF72EFEFFF770FE0A4C00254FF40046CA
:100CA00020780528FCD325706078401CC1B26170A3
:100CB000282903D365703046FFF774FDFFF7E0FA8B
:100CC000EEE7000008000020E80C0008000000200B
:100CD000140000006C010008FC0C00081400002047
:100CE0006406000088010008000000002828282869
:0C0CF000000000490000000000000000AF
:0400000508000131BD
:00000001FF
