:020000040800F2
:1000000070070020F1010008AB0F00084B0D00083D
:10001000090F00080F0A0008C518000800000000BA
:100020000000000000000000000000006111000856
:10003000310C000800000000251000080B14000817
:100040000B0200080B0200080B0200080B0200085C
:100050000B0200080B0200080B0200080B0200084C
:100060000B0200080B0200080B0200080B0200083C
:100070000B0200080B0200080B0200080B0200082C
:100080000B0200080B0200080B0200080B0200081C
:100090000B0200080B0200080B0200080B0200080C
:1000A0000B0200080B0200080B0200080B020008FC
:1000B0004D1400080B0200080B0200080B02000898
:1000C0000B0200080B0200080B0200080B020008DC
:1000D0000B0200080B0200080B020008251700089D
:1000E0000B0200080B0200080B0200080B020008BC
:1000F0000B0200080B0200080B0200080B020008AC
:100100000B0200080B0200080B0200080B0200089B
:100110000B0200080B0200080B0200080B0200088B
:100120000B0200080B0200080B0200080B0200087B
:1001300000F002F800F04CF80AA090E8000C8244AD
:100140008344AAF10107DA4501D100F041F8AFF28A
:10015000090EBAE80F0013F0010F18BFFB1A43F0A5
:10016000010318470821000028210000103A24BF8D
:1001700078C878C1FAD8520724BF30C830C144BF0C
:1001800004680C607047000000230024002500264E
:10019000103A28BF78C1FBD8520728BF30C148BFEA
:1001A0000B607047642900F0E180002070471FB5A4
:1001B0009DE8030000F0ACF900F07CFB0400002097
:1001C000002102F031F8401C60601FBD10B510BD69
:1001D00000F04AFB1146FFF7EAFF01F099FC00F03E
:1001E0007BFB03B4FFF7F2FF03BC00F0A9FB0000A8
:1001F0000948804709480047FEE7FEE7FEE7FEE7BB
:10020000FEE7FEE7FEE7FEE7FEE7FEE704480549F6
:10021000054A064B704700000D1400083101000824
:100220007001002070070020700300207003002080
:1002300070B5064600F04CF9056806F10B0020F099
:100240000704B4429CBF002070BD2B466A68BAB157
:100250001068A04210D304F1080188423CBF5068E6
:10026000586007D35168101941601168091B01607B
:1002700058601460101D70BD13465268002AE7D103
:100280002146284600F030F90028DED170BD70B557
:100290000446051F00F01CF90068002C14BF4468D8
:1002A00070BD002C18BFAC423CBF20466468F8D338
:1002B00001680A18AA4218BF456003D12A6805469A
:1002C0001144016028684119A1421CBF6C6070BDD7
:1002D0006168696021680844286070BD0FB41CB56E
:1002E000074B06AA7B4469460090059800F0A5F9E3
:1002F0000020694600F0B4F91CBC5DF814FB000056
:10030000790300002DE9F0410E46044600202062EA
:100310002046E168884730B3252805D0D4E901217B
:100320009047206A401CF2E7E16820460027884792
:10033000050018D0A5F14100192802D820354FF446
:1003400000673246294620462760FFF72BFF40B161
:10035000012804D0F61D26F007060836D8E7361D1A
:10036000D6E72846DAE7206ABDE8F0812DE9F041BA
:100370000646002410687529314616A510D0AFF343
:100380000080002802DA404213A507E031688A079E
:1003900001D512A502E0490704D511A5012401E009
:1003A000AFF3008000210A2206F1240709E0B0FB28
:1003B000F2FCB0FBF2F302FB1C003030785418461C
:1003C000491C0028F3D123462A463046BDE8F041B7
:1003D00000F0D4B8000000002D0000002B00000049
:1003E0002000000070B5064600F076F80468054667
:1003F00030460A22002100F038F92C6070BD401E02
:10040000CAB210F8011F8A4202D00029F9D1002097
:10041000704730B505460B462A4613F8014B12F8D3
:10042000010B08B1A042F8D01CB1002802D06D1C0D
:10043000F1E7284630BD10B5431C02E010F8011B5F
:1004400071B18107FAD14FF0013202C88C1A8C4386
:1004500014EAC211F9D0C01A0A0603D0C01E10BD9A
:10046000C01A10BD0A0401D0801E10BD0902FCD0C4
:10047000401E10BD10B5044610F0030F08BF11F068
:10048000030F40F015804FF0013E121FC0F20E80A6
:1004900051F8043BA3EB0E0C2CEA030C1CEACE1C17
:1004A00008BF40F8043BF0D0A1F1040102F10402BE
:1004B000521E08DB11F8013B002B00F8013BF7D17D
:1004C000114600F00AF9204610BD7047704770478A
:1004D0000048704714010020004870470C010020BC
:1004E000704770477047704738B504460A46002089
:1004F0006946AFF30080002808BF38BD0246009966
:10050000204600F019F9012038BD012000F07DB926
:10051000F8B5AFF30080054600200C46102000BF60
:100520000646A819A0420DD9324669460020AFF30D
:100530000080070008BF00F068F90098A04218BFCB
:100540000546C419FFF7C4FF05600746F01D20F0FB
:1005500007004619284600F00AF8B44208BFF8BD63
:10056000A21B31463868BDE8F84000F0E5B800212C
:100570000160C0E901107047102070472DE9F04775
:100580000D4699469246044600F124080168880603
:1005900004D5E06921F01001216000E00120A842AB
:1005A00001DD471B00E00027A1697A1902EB090071
:1005B000081AA0612078C00602D42046AFF300805C
:1005C000002608E0D4E901211AF806009047206AC5
:1005D000401C761C20624E45F4DB2078C0060AD50C
:1005E0002046AFF3008006E0D4E901213020904797
:1005F000206A401C2062381EA7F10107F4DC07E0E6
:10060000D4E9012118F805009047206A401C2062B7
:10061000281EA5F10105F3DC2046AFF30080207809
:10062000000602D50220BDE8F0870120FBE70000AC
:1006300001694A1C02610878704700B58FB0CDE9A6
:1006400001310021059105497944CDE90310114696
:100650006846FFF757FE0FB000BD0000E5FFFFFF43
:100660000A6802F8010B0A6070472DE9F0479146CD
:100670000F4680460446002614F8015B2DB100F0B9
:1006800053F80068405DC007F6D12B2D02D02D2D08
:1006900018D0641E4A463946204600F067F827B154
:1006A0003968A14201D1C7F800804FF002047105FA
:1006B0000BD54042002803DDFFF70EFF0460A007C2
:1006C000BDE8F08746F48066E4E70028F8DAFFF733
:1006D00003FF04606FF00040F2E74FF000020429CE
:1006E000C0F0128010F0030C00F09880CCF1040CE4
:1006F000BCF1020F18BF00F8012BA8BF20F8022B95
:10070000A1EB0C0100F08AB85FEAC17C24BF00F8BD
:10071000012B00F8012B48BF00F8012B70470000A7
:10072000004870470C01002010B500F0C3F8001D10
:1007300010BD00BFF51A0000034640688C46002833
:1007400018BF88423CBF03464068F8D31868184475
:10075000884207D00CF1030020F00700001D411A69
:10076000521A0146081D0A60FFF791BD2DE9F05F9E
:10077000824615468B4600270AF10104B9460078E7
:10078000302801D09DB113E014F8010B012778281F
:1007900003D0582801D045B10AE00DB1102D07D182
:1007A000002714F8010B102502E0082500E00A25B7
:1007B0000026B0460EE005FB080005FB06F1012708
:1007C0001FFA80F801EB1046B6F5803F00D3B9461A
:1007D00014F8010B294600F071F80028EBDABBF1A0
:1007E000000F05D00FB1641E00E05446CBF8004066
:1007F000B9F1000F06D0FFF76FFE02210160C81E9D
:10080000BDE8F09F48EA0640FAE710B500F070F83E
:10081000BDE8104000F066B84FF0000200B5134686
:1008200094469646203922BFA0E80C50A0E80C5010
:10083000B1F12001BFF4F7AF090728BFA0E80C50C1
:1008400048BF0CC05DF804EB890028BF40F8042BBA
:1008500008BF704748BF20F8022B11F0804F18BF27
:1008600000F8012B704770477546FFF759FFAE46F9
:1008700005006946534620F00700854618B020B5AC
:10088000FFF7C4FCBDE820404FF000064FF0000722
:100890004FF000084FF0000B21F00701AC46ACE828
:1008A000C009ACE8C009ACE8C009ACE8C0098D4695
:1008B00070470000004870472C0100203A2800D201
:1008C000303820F02002412A01D3A2F137008842BB
:1008D00001D34FF0FF3070470446AFF3008020464D
:1008E000FFF77FFC002801D000F02AB87047000015
:1008F00010B5012805D0002103A000F027F8012041
:1009000010BD09A1F8E7000053494752544D454D29
:100910003A204F7574206F662068656170206D65A0
:100920006D6F7279000000003A2048656170206D9B
:10093000656D6F727920636F727275707465640093
:1009400001491820ABBEFEE72600020070B505463F
:100950000C460A2000E06D1C00F052F835B12878F2
:100960000028F8D102E0641C00F04AF814B12078A5
:100970000028F8D1BDE870400A2000F041B800001E
:100980004FF0013C50F8042B51F8043B9A4221D11E
:10099000A2EB0C03934313EACC1317D150F8042BAA
:1009A00051F8043B9A4215D1A2EB0C03934313EA8E
:1009B000CC130BD150F8042B51F8043B9A4209D1C7
:1009C000A2EB0C03934313EACC13DBD04FF00000EF
:1009D000704700BFD01A01BAB1FA81F101F01801D5
:1009E00022FA01F0CB40C1F12001DBB2C0B2C01A43
:1009F0002CFA01F3D11A914311EAC311E6D17047E1
:100A000008B569468DF800000320ABBE08BDFEE7BF
:100A100005496FF027000870044908700449087000
:100A20000449087070470000040000200500002001
:100A3000060000200700002004492820087004490F
:100A400008700449087004490870704704000020C9
:100A500005000020060000200700002006496FF076
:100A60001300064A087028211170054908700549CD
:100A700032200870704700000400002005000020AC
:100A800006000020070000202DE9F0414848494CAD
:100A90004FF4005190F90020474D8F102068002A34
:100AA0001ADD904203D2284600F04DF902E02846B4
:100AB00000F047F93946284600F043F93F48414ED7
:100AC00090F900103E48002928DD22688A420FD2A2
:100AD000394600F038F90EE0E9DA52429042E6D2A7
:100AE000284600F02EF93946284600F02CF9E5E7B3
:100AF000394600F026F90121304600F022F932484B
:100B00004FF4007790F90000002829DD2168814228
:100B100011D24021304600F016F910E0E8DA2268E0
:100B200049428A42E4D2394600F00BF901213046AD
:100B300000F009F9E3E74021304600F002F93946B8
:100B4000284600F0FEF8214890F90000002815DD45
:100B50002168814221D21021304600F0F4F820E0D3
:100B6000E9DA216840428142E5D24021304600F076
:100B7000E8F83946284600F0E6F8E4E70DDA21689F
:100B80004042814209D21021304600F0DAF8304666
:100B9000BDE8F041042100F0D6B81021304600F045
:100BA000D0F83046BDE8F041042100F0CAB800009A
:100BB000040000200000002000200140050000206B
:100BC0000010014000140140060000200700002032
:100BD00006492820074A087005496FF0130008707D
:100BE0003221117004490870704700000400002091
:100BF0000500002006000020070000200449002016
:100C00000870044908700449087004490870704766
:100C1000040000200500002006000020070000203E
:100C20000248002101704170817070471C00002053
:100C3000704700EBC0014FF0E0204161016941F0D5
:100C4000010101610169C903FCD5002101618161D4
:100C5000704700B502464FF47A7302E01846FFF77A
:100C6000E8FF521EFAD200BD10B50121042000F0A9
:100C700021FA0121082000F01DFA0121102000F0C6
:100C800019FA0121202000F015FA0121402000F07E
:100C900011FA0121802000F00DFA0121BDE8104079
:100CA000080200F007BAF0B5CC78002204F00F0378
:100CB000E40601D58C7823430C784FF00F0C14F028
:100CC000FF0F4FF0010E1BD005680E880EFA02F4DC
:100CD0002640A64210D196000CFA06F725EA07072F
:100CE00003FA06F5CE783D43282E02D0482E02D0D6
:100CF00002E0446100E00461521C082AE5D305606B
:100D00000A88FF2A1CD94468002202F108060EFA5C
:100D100006F50E882E40AE420ED196000CFA06F76C
:100D2000BC4303FA06F7CE783C43282E00D1456138
:100D3000CE78482E00D10561521C082AE5D34460C4
:100D4000F0BD4161704701617047FEE770B5002456
:100D500000F02EF86420FFF77CFF382000F070F8D8
:100D60000C2000F06DF8062000F06AF8012000F079
:100D700067F86420FFF76DFF802000F061F80B4DED
:100D8000285D00F08FF8641C64B20B2CF8DBC020E7
:100D900000F056F8054D00240C35285D00F082F86F
:100DA000641C64B2082CF8DB70BD000054220008FB
:100DB000F8B54FF40050ADF800001025154E8DF831
:100DC000035003248DF8024069463046FFF76BFF5D
:100DD000A802ADF800008DF803508DF80240694676
:100DE0003046FFF760FFE802ADF800008DF80350D1
:100DF0008DF8024069463046FFF755FFFF20ADF8F9
:100E000000008DF803508DF8024069460248FFF754
:100E10004AFFF8BD00100140001C014010B5044617
:100E2000C92000F00DF8E0B2BDE8104000F03AB87B
:100E30000249CA684240CA60704700000020014071
:100E400070B504461420FFF7F4FE14494FF47F02F6
:100E50000A600C60124C49142046FFF772FF4FF4F1
:100E600080412046FFF76DFF4FF40045294620469C
:100E7000FFF767FF0A20FFF7DCFE29462046FFF751
:100E800062FF0A20FFF7D5FE29462046FFF759FFEB
:100E9000BDE870400A20FFF7CCBE0000101C0140E6
:100EA0000010014070B504461420FFF7C2FE14493B
:100EB0004FF47F020A600C60124C49142046FFF781
:100EC00042FF4FF480412046FFF73BFF4FF40045BF
:100ED00029462046FFF735FF0A20FFF7AAFE2946DC
:100EE0002046FFF730FF0A20FFF7A3FE29462046E1
:100EF000FFF727FFBDE870400A20FFF79ABE000009
:100F0000101C014000100140FEE70000F8B54FF44E
:100F10000050ADF8000002208DF802001C4E102495
:100F20008DF8034069463046FFF7BDFEE501ADF898
:100F3000005069463046FFF7B6FEADF800506946EE
:100F40001448FFF7B0FE0120134DADF800006946CC
:100F50002846FFF7A8FE4020ADF800006946284665
:100F6000FFF7A1FE6001ADF8000069463046FFF7CB
:100F70009AFEADF8004069462846FFF794FE04202B
:100F8000ADF8000069462846FFF78DFEF8BD000069
:100F900000200140001001400014014010B5FFF78F
:100FA000B5FFBDE81040FFF729BE704730B50F23ED
:100FB000C27801780125F2B1144A126801F1E021EA
:100FC00002F4E062C2F5E062120AC2F10404D34006
:100FD0004278A24084781C401443220181F8002406
:100FE000007800F01F018D404009800000F1E020F2
:100FF000C0F8005130BD01F01F0085404809800055
:1010000000F1E020C0F8805130BD00000CED00E0A0
:101010000249084302490860704700000000FA05D1
:101020000CED00E07047000010B5064C014620466C
:1010300000F03EFC4021204600F0A1FB0028F9D042
:1010400010BD00000048004070B50446124D0AE093
:1010500081B22846641C00F02BFC4021284600F099
:101060008EFB0028F9D094F900000028F0D10D2162
:10107000284600F01DFC4021284600F080FB002897
:10108000F9D00A21284600F013FC4021284600F040
:1010900076FB0028F9D070BD00380140044A0029D1
:1010A000D16901D0014300E08143D1617047000064
:1010B00000100240044A0029916901D0014300E078
:1010C00081439161704700000010024030B5204A12
:1010D0005168204B11F00C0103D0042901D00829DC
:1010E00001D0036012E05168536801F470114FF0B1
:1010F000020413F4803F04EB914102D053689B0338
:1011000001D5154B00E0134B5943016051680F2383
:1011100003EA1111114B5C5C0168E14041605468C5
:10112000072505EA14241C5D21FA04F48460546840
:1011300005EAD4241B5DD940C1605268032303EA49
:101140009232064B1B1F9A5CB1FBF2F1016130BD7C
:101150000010024000127A0000093D002C0000201F
:1011600070470000054801784078081A6021603017
:1011700090FBF1F201FB1200704700001C00002000
:101180000D4B10B51A786021521CB2FBF1F401FB33
:1011900014225C78A2420AD0084A1C7810551878AC
:1011A000401CB0FBF1F201FB1200187001E00120BD
:1011B0009870012010BD00001C000020AC00002031
:1011C0007CB50F4E012908D000290FD16D46026869
:1011D0000CA12846FFF782F80DE0044603E0B16851
:1011E000C0B2641C884720780028F8D17CBDB16863
:1011F000C0B26D1C884728780028F8D17CBD00005B
:101200001C0000202564000010B5FFF7D9FF044C36
:101210000D20A1688847A168BDE810400A20084752
:101220001C0000200A4B10B558781978884202D16A
:101230004FF0FF3010BD07485978405C5978602264
:10124000491CB1FBF2F402FB1411597010BD0000EF
:101250001C000020AC00002038B54FF48054ADF8DD
:10126000004010208DF803000320064D8DF8020089
:1012700069462846FFF717FD21462846FFF763FD1C
:1012800038BD00000014014008B50090FFF7C8FC0D
:10129000012108A0FFF794FF00216846FFF790FFA7
:1012A000012107A0FFF7B0FF6421084800F02AFDE4
:1012B00008BD000041542B554152543D0000000030
:1012C0002C382C312C302C3000000000BC1F0008C2
:1012D0000CB50022264800920192016841F4803149
:1012E00001604FF4A063016801F40031019100999D
:1012F000491C0091019911B900999942F3D10168F3
:10130000890333D5012101911A490A6842F010027C
:101310000A600A6822F003020A600A6842F00202C8
:101320000A604168416041684160416841F4806100
:101330004160416821F47C114160416841F4E81149
:101340004160016841F08071016001688901FCD54C
:10135000416821F003014160416841F002014160B0
:101360004168C1F381010229FAD10CBD01920CBD83
:10137000001002400020024070B50D460446FFF701
:101380005AF8255420440021417070BD10B5044620
:10139000FFF73FF808B1001B10BD4FF0FF3010BD44
:1013A0002DE9F04115460F460446FFF744F84FF08B
:1013B000FF36A84207D360193946FFF720F810B16D
:1013C000001BBDE8F0813046FBE7FFF734B82DE99C
:1013D000F0411D46144680460E464FF0FF37AA42A4
:1013E00004DC0846FFF727F8A84202D23846BDE8D9
:1013F000F0812D1B6A1C31194046FFF73BF805EBC5
:101400000800002141700120F1E770470C48016895
:1014100041F00101016041680A4A114041600168E0
:10142000094A11400160016821F48021016041688E
:1014300021F4FE0141604FF41F018160FFF748BFB6
:10144000001002400000FFF8FFFFF6FE70B501211A
:101450008C07204600F066F800281ED001212046A7
:1014600000F053F80D490878401CC0B208700A28F3
:1014700013D30B4C00250D702068401C20600948D8
:101480000178491C017000F0C7FE2068322800D3A3
:101490002560BDE87040FFF7F7BA70BD140000206A
:1014A00000000020080000207FB501210846FFF75A
:1014B000F5FD6320ADF804004720ADF800000024DE
:1014C0004FF08045ADF80640ADF802406946284629
:1014D00000F03CF80121284600F017F801221146DF
:1014E000284600F02BF80121284600F011F81C20B6
:1014F0008DF80C008DF80D4001208DF80E008DF850
:101500000F0003A8FFF752FD7FBDC943018270475A
:101510000029018802D041F0010101E021F0010120
:101520000180704702460020138A92890B4202EA2A
:10153000010202D0002A00D001207047002A8289CF
:1015400001D00A4300E08A438281704730B50288A7
:101550001B4C1C4DA0420DD0A8420BD0B0F1804FC7
:1015600008D0194B984205D0184B984202D0184B1E
:10157000984203D122F070034A881A43154B9842CF
:1015800006D0154B984203D022F44073CA881A4300
:1015900002808A8882850A880285A0420AD0A842F1
:1015A00008D00E4A904205D00D4A904202D00D4A12
:1015B000904201D1097A01860121818230BD00006B
:1015C000002C0140003401400004004000080040AD
:1015D000000C00400010004000140040004001409A
:1015E000004401400048014030B5044685B0012167
:1015F00044F20400FFF75EFD4FF40071ADF81010E7
:1016000002218DF812101820164D8DF8130004A930
:101610002846FFF748FB04218DF813100802ADF8A7
:10162000100004A92846FFF73EFB0020ADF8040097
:101630000094ADF80600ADF80800ADF80C000C20E1
:10164000094CADF80A006946204600F0D7F80121A0
:10165000204600F08AF84021204600F07DF805B0D1
:1016600030BD0000000801400038014070B504465C
:10167000012186B08804FFF711FD01210820FFF742
:1016800019FD4FF48060ADF8100002258DF812505E
:101690001820224E8DF8130004A93046FFF703FBF3
:1016A00004218DF813104802ADF8100004A930464B
:1016B000FFF7F9FA00940024ADF808400C20184E0A
:1016C000ADF80440ADF80A00ADF80640ADF80C40A6
:1016D0006946304600F092F8012240F2255130462A
:1016E00000F073F80121304600F03FF84021304609
:1016F00000F032F84FF4E060FFF78AFC27208DF805
:1017000014008DF815408DF8165001208DF8170043
:1017100005A8FFF74BFC06B070BD0000000C0140AF
:101720000048004070B50B4C40F225552946204634
:1017300000F02CF800280BD02946204600F00FF8C6
:10174000204600F0B1F8BDE87040C0B2FFF718BD08
:1017500070BD000000480040C943018070470A0A7C
:1017600001219140C943018070470029818902D03D
:1017700041F4005101E021F400518181704702469B
:10178000002012880A4200D00120704770B501F095
:101790001F0501260024C1F3421306FA05F2012BAE
:1017A0000FD0022B0FD0838A4FEA112100881342F9
:1017B00006FA01F600EA060001D000B10124204635
:1017C00070BD8389F0E7038AEEE710B5C1F34213D9
:1017D00001F01F040121A140012B07D0022B07D0EB
:1017E0001430002A026805D00A4304E00C30F8E700
:1017F0001030F6E78A43026010BD000030B50446A1
:10180000008A85B00D464CF6FF710840E988014317
:101810002182A0894EF6F3110840A9882A89114334
:101820006A8902431143A181A08A4FF6FF41084013
:10183000A9890143A1826846FFF748FC1948844200
:1018400001D1039800E00298A189090400EBC001CE
:1018500001EB0010296801D5490000E08900B0FBC8
:10186000F1F06422B0FBF2F109010B096FF01805E9
:101870006B4300EB8300A3891D044FF0320306D5B0
:1018800003EBC000B0FBF2F000F0070005E003EB53
:101890000010B0FBF2F000F00F000843208105B00B
:1018A00030BD0000003801408088C0F30800704758
:1018B000C1F3080181807047014BC3E90112084759
:1018C0001C000020FEE7000038B54FF40044ADF8DE
:1018D000004010208DF803000320064D8DF8020013
:1018E00069462846FFF7DFF921462846FFF72BFA1D
:1018F00038BD0000002001402DE9F04107461C469C
:1019000015460E4623A0FFF79FFB00F023FB00289F
:10191000FBD000F049FC0028FBD020A0FFF794FB8F
:1019200022A0FFF791FB3846FFF78EFB21A0FFF7BF
:101930008BFB3046FFF788FB3146384600F0E6F86F
:10194000D8B11FA0FFF780FB00F074F80028FBD08F
:101950004FF4FA662146284600F052F888B11BA0E1
:10196000FFF772FB4FF47A7000F052F800F094F831
:1019700003280DD00020BDE8F08118A0FFF764FB1C
:10198000CBE71AA0FFF760FB304600F041F8E1E733
:101990000120F0E752657374617274006C696E6BBC
:1019A0002041502E2E2E0D0A0000000053534944B2
:1019B0003A00000070617373776F72643A00000040
:1019C0006C696E6B204150204F4B00006372656163
:1019D000746520746370206F6B0D0A006C696E6B08
:1019E000204150206661696C0D0A000063726561D8
:1019F000746520746370206572720D0A0000000027
:101A00000A46014601A000F0DFBA0000544350002E
:101A100003490A680B689B1A8342FBD97047000090
:101A2000180000204FF0E020016921F0040101615D
:101A30007047000038B500200090FFF7F1F8012151
:101A40000CA0FFF7BDFB00216846FFF7DDFB0C484B
:101A50000024642304700BA20E4900F051FA0D49D2
:101A60000748FFF793FC401C01D0012038BD2046F9
:101A700038BD000041542B4349504D55583D00009E
:101A80004C0000204C696E6B206973206275696C94
:101A900064656400BC1F000838B51020FEF7C8FB61
:101AA0000446FFF7BDF801210EA0FFF7ADFB64204F
:101AB000009023460FA211A1114800F037F911A19F
:101AC0002046FFF763FC411C07D0C01D2556204669
:101AD000FEF7DDFBA5F1300038BD2046FEF7D7FB51
:101AE000002038BD41542B43495053544154555361
:101AF000000000000D0A0D0A4F4B00000D0D0A00FA
:101B0000BC1F00085354415455533A0000F0D8BA52
:101B10004FF41650FFF768FD57A0FFF795FAFFF74F
:101B200081FFFFF7A1F8FFF7CFFEFFF70FF9FFF7EF
:101B3000BBFCFFF733FAFFF78FFB0127DFF8489173
:101B40004FF4E13A4FF4FA744FF4964641F6907828
:101B500000254EA0FFF778FA4F4A50495046FFF74C
:101B6000ABFE2046FFF754FF3046FFF78DFB4A4A95
:101B70004A493046FFF7A0FE2046FFF749FF3046AE
:101B8000FFF782FB0028E4D04646334644A248A132
:101B90004BA0FFF7B1FE0028F7D04C46FFF7E2FA62
:101BA000052815DD64221021474800F0A3F800281D
:101BB0000EDD454894F9021090F90000814202D1EF
:101BC000E178012901D12771A0703C20E070A56067
:101BD00020780528E2D325706078401CC0B2607080
:101BE00028281ED36570A068401CA0604FF40040F8
:101BF000FFF71EF9A0680F2813D3A560FFF74CFF6D
:101C000003280BD031A0FFF71FFA334624A228A1E6
:101C10002BA0FFF771FE0028F7D002E02EA0FFF7FF
:101C200013FAE07810B9E770FEF7E8FF2079012891
:101C3000B4D1257194F902004138092814D2DFE8A3
:101C400000F005080B0E131313131100FEF7F4FE3A
:101C50000AE0FEF7DDFE07E0FEF700FF04E0FEF716
:101C6000B7FF01E0FEF7CAFF94F90200FFF7D6F8CC
:101C70001DA0FFF7E9F991E773797374656D206230
:101C80006567696E00000000080000206368616EEF
:101C90006720626175640000291000086D16000855
:101CA0003139322E3136382E33312E31393500006C
:101CB00068616E74656368696E7465726E657400E0
:101CC00048616E74656368003C00002054435020F6
:101CD000756E6C696E6B0000544350206C696E6BBE
:101CE000207469636B0000007265637620434F4D7A
:101CF0004D00000038B5002413462246009400F041
:101D000049F838BD10B5084B0A4600211970044641
:101D10000146184600F0D2F821460348FFF736FB8B
:101D2000401C00D0012010BD4C0000202DE9F047E0
:101D3000174F1446884605460026089A01469946DC
:101D40003E70384600F0BAF829463846FFF71EFBC9
:101D5000401C19D041463846FFF718FB054621467E
:101D60003846FFF713FB0446681C0DD0601C0BD0EF
:101D70004046FFF72AFB4219631E39464846FFF7E3
:101D800026FB0120BDE8F0873E700020FAE7000046
:101D90004C0000202DE9FF4F4FF0000683B043496F
:101DA00000965FEA00093546B0460E707CD0404987
:101DB000D1F800A08B463FE0FFF7D4F9002805DDFD
:101DC000FFF730FA41B23948FFF7D6FA39A1374860
:101DD000FFF7DCFA0446401C2ED0621D3A2133483E
:101DE000FFF7DEFA0746401C26D0621D2C212F4843
:101DF000FFF7D6FA0646401C1BD0BE4219DA33461E
:101E0000621D2A496846FFF7E2FA6846FEF7EAFAD9
:101E10004FFA80F8B8F1050F46D23B46721C2349B1
:101E20006846FFF7D4FA6846FEF7DCFA051E3BDD8C
:101E30000BE03B46621DF2E7DBF800100698A1EBD1
:101E40000A018142B8D3009828B30498002485423F
:101E500001D9074600E02F46DBF800A01CE0FFF7A1
:101E6000E1F909F80400641CFFF77CF9002801DDA2
:101E7000BC42F4D3BC420FD1FEF7D2FE059800B1AC
:101E8000056026B1109810B1109981F8008038468D
:101E900007B0BDE8F08F07E0DBF8001040F6B8307F
:101EA000A1EB0A018142DFD30020F1E74C000020C2
:101EB000180000202B4950442C0000002DE9F0416F
:101EC0000E4E15460F468046346810E0FFF7AAF91B
:101ED00041B211B14046FFF74FFAFFF743F900282E
:101EE000F4DC39464046FFF751FA401C03D1306814
:101EF000001BA842F1D30120BDE8F08118000020AA
:101F00002DE9F047124E1D46174688468146346833
:101F100016E0FFF787F941B211B14846FFF72CFAF6
:101F2000FFF720F90028F4DC41464846FFF72EFA77
:101F3000401C09D139464846FFF728FA401C03D116
:101F40003068001BA842EBD30120BDE8F0870000F9
:101F50001800002070B5FEF763FE012115A0FFF701
:101F600053F9642115A0FFF7CDFE00B34FF4FA60DA
:101F7000FFF74EFD124D2C6840F6B83613E0FEF721
:101F80004FFE01210FA0FFF73FF964210BA0FFF7DF
:101F9000B9FE28B140F2DC50FFF73AFD012070BDD8
:101FA0006420FFF735FD2868001BB042E7D300200E
:101FB00070BD000041542B52535400004F4B0000A1
:101FC00018000020415400002DE9F84F0D462D491E
:101FD0000446002000920870FEF722FE01212AA08C
:101FE000FFF7EEF801212046FFF7EAF801212AA0C9
:101FF000FFF7E6F801212846FFF7E2F8012127A0C4
:10200000FFF7DEF800216846FFF7FEF8DFF874A05E
:102010000FF28C090FF28C08284E24A742F210759B
:1020200034681CE0FFF7FEF841B211B15046FFF7EB
:10203000A3F9FFF797F80028F4DC49465046FFF76C
:10204000A5F9401C0FD141465046FFF79FF9401CAF
:1020500009D139465046FFF799F9401C03D1306841
:10206000001BA842E5D30EA10648FFF78FF9401CDC
:1020700005D10EA10348FFF789F9401C00D00120CB
:10208000BDE8F88F4C00002041542B434950535475
:102090004152543D22000000222C2200222C00003C
:1020A0004F4B00004552524F52000000414C5245E8
:1020B00041445920434F4E4E4543540018000020E0
:1020C00070B50D460446FEF7ABFD134A0020012112
:1020D000107012A0FFF774F801212046FFF770F886
:1020E000012111A0FFF76CF801212846FFF768F8DD
:1020F00001210EA0FFF788F842F210730CA20E49DE
:102100000548FFF7FDFE0C490348FFF73FF9401C67
:1021100000D0012070BD00004C00002041542B4332
:10212000574A41503D220000222C2200220000008C
:102130004641494C00000000BC1F000808B5124988
:10214000009000200870FEF76BFD01210FA0FFF743
:1021500037F800216846FFF757F864230EA21149AB
:102160000948FFF7CDFE0F490748FFF70FF9401C5C
:1021700005D109A10448FFF709F9401C01D000204E
:1021800008BD012008BD00004C00002041542B4335
:10219000574D4F44453D00006E6F206368616E6788
:1021A00065000000BC1F00081FB5FF208DF80C0063
:1021B000FEF736FD012110A0FFF726F864200090FD
:1021C00001AB104A10A11348FFF7B0FD00280FD053
:1021D00001A8FEF707F9C0B28DF80C00032806D05D
:1021E0000320FFF7ABFF28B1FFF7B4FE10B10120C9
:1021F00004B010BD0020FBE741542B43574D4F4422
:10220000453F0000F41A00082B43574D4F44453A10
:1022100000000000BC1F000802480168491C016062
:10222000704700001800002010B500290AD0087877
:10223000002807D005487844FEF7A2FB002801D00B
:10224000002010BD0248784410BD00005600000078
:102250004E00000048616E74656368204D43550070
:10226000436F6D6D616E643A000000009C230008AE
:10227000000000203C0000006C010008D82300088A
:102280003C00002034070000880100081001000015
:1022900043000000F8FFFFFF004040404040404046
:1022A0004040414141414140404040404040404029
:1022B00040404040404040404005020202020202CD
:1022C000020202020202020202202020202020201C
:1022D0002020200202020202020290909090909030
:1022E00010101010101010101010101010101010EE
:1022F0001010101002020202020288888888888862
:10230000080808080808080808080808080808084D
:102310000808080802020202400000000000000055
:1023200000000000000000000000000000000000AD
:10233000000000000000000000000000000000009D
:10234000000000000000000000000000000000008D
:10235000000000000000000000000000000000007D
:10236000000000000000000000000000000000006D
:10237000000000000000000000000000000000005D
:10238000000000000000000000000000000000004D
:10239000000000000000000000000000000000003D
:1023A0002828282800004900000000000000000044
:1023B000000000000000000000000000000000001D
:1023C00000000000020406080000000001020304EF
:0823D0000102030406070809DD
:0400000508000131BD
:00000001FF
