:020000040800F2
:1000000078060020CD010008CB0A0008EF060008A2
:10001000290A00087F020008650E000800000000A1
:10002000000000000000000000000000790B000844
:100030009104000800000000450B0008550C000862
:10004000E7010008E7010008E7010008E7010008F0
:10005000E7010008E7010008E7010008E7010008E0
:10006000E7010008E7010008E7010008E7010008D0
:10007000E7010008E7010008E7010008E7010008C0
:10008000E7010008E7010008E7010008E7010008B0
:10009000E7010008E7010008E7010008E7010008A0
:1000A000E7010008E7010008E7010008E701000890
:1000B000990C0008E7010008E7010008E7010008C3
:1000C000E7010008E7010008E7010008E701000870
:1000D000E7010008E7010008E7010008E701000860
:1000E00017050008E7010008E7010008E70100081C
:1000F000E7010008E7010008E7010008E701000840
:10010000E7010008E7010008E7010008E70100082F
:10011000E7010008E7010008E7010008E70100081F
:10012000E7010008E7010008E7010008E70100080F
:1001300000F002F800F03AF80AA090E8000C8244BF
:100140008344AAF10107DA4501D100F02FF8AFF29C
:10015000090EBAE80F0013F0010F18BFFB1A43F0A5
:1001600001031847040E0000240E0000103A24BFBB
:1001700078C878C1FAD8520724BF30C830C144BF0C
:1001800004680C607047000000230024002500264E
:10019000103A28BF78C1FBD8520728BF30C148BFEA
:1001A0000B6070471FB51FBD10B510BD00F031F8D2
:1001B0001146FFF7F7FF00F077FE00F04FF803B4A9
:1001C000FFF7F2FF03BC00F053F800000948804736
:1001D00009480047FEE7FEE7FEE7FEE7FEE7FEE729
:1001E000FEE7FEE7FEE7FEE704480549054A064B41
:1001F00070470000590C0008310100087800002009
:1002000078060020780200207802002070477047AE
:100210007047754600F028F8AE460500694653461B
:1002200020F00700854618B020B5FFF7DDFFBDE8D8
:1002300020404FF000064FF000074FF000084FF04D
:10024000000B21F00701AC46ACE8C009ACE8C009DE
:10025000ACE8C009ACE8C0098D4670470446AFF36E
:1002600000802046FFF7ABFF0048704714000020D5
:1002700001491820ABBEFEE7260002007047FEE7EA
:1002800005496FF027000870044908700449087098
:100290000449087070470000040000200500002099
:1002A00006000020070000200449282008700449A7
:1002B0000870044908700449087070470400002061
:1002C00005000020060000200700002006496FF00E
:1002D0001300064A08702821117005490870054965
:1002E0003220087070470000040000200500002044
:1002F00006000020070000202DE9F0414848494C45
:100300004FF4005190F90020474D8F102068002ACB
:100310001ADD904203D2284600F0E7F902E02846B1
:1003200000F0E1F93946284600F0DDF93F48414E3A
:1003300090F900103E48002928DD22688A420FD239
:10034000394600F0D2F90EE0E9DA52429042E6D2A4
:10035000284600F0C8F93946284600F0C6F9E5E716
:10036000394600F0C0F90121304600F0BCF93248AE
:100370004FF4007790F90000002829DD21688142C0
:1003800011D24021304600F0B0F910E0E8DA2268DE
:1003900049428A42E4D2394600F0A5F901213046AB
:1003A00000F0A3F9E3E74021304600F09CF939461C
:1003B000284600F098F9214890F90000002815DD42
:1003C0002168814221D21021304600F08EF920E0D0
:1003D000E9DA216840428142E5D24021304600F00E
:1003E00082F93946284600F080F9E4E70DDA216801
:1003F0004042814209D21021304600F074F9304663
:10040000BDE8F041042100F070B91021304600F041
:100410006AF93046BDE8F041042100F064B90000FB
:100420000400002000000020002001400500002002
:1004300000100140001401400600002007000020C9
:1004400006492820074A087005496FF01300087014
:100450003221117004490870704700000400002028
:1004600005000020060000200700002004490020AD
:1004700008700449087004490870044908707047FE
:1004800004000020050000200600002007000020D6
:10049000704710B5044602E08C2000F005F8641E99
:1004A000E4B2F9D210BD000031B50C4D0098012125
:1004B00084B2284600F050FC2146284600F06CFC2F
:1004C00003E0284600F052FC0446012CF9D82846E7
:1004D000BDE83840002100F03FBC000000040040AF
:1004E00000EBC0014FF0E0204161016941F00101E2
:1004F00001610169C903FCD5002101618161704777
:1005000000B502464FF47A7302E01846FFF7E8FFA1
:10051000521EFAD200BD10B54FF48064204600F0A0
:1005200011F8002806D0204600F006F8BDE810407B
:1005300000F018B910BD00000149086070470000C4
:1005400014040140064A014600201268044B0A4088
:1005500014331B680B4202D0002A00D001207047E0
:100560000004014030B51A4A8379016853B3136817
:100570008B431360111D0B680468A3430B60017962
:1005800011440B68046823430B60114B083319684E
:100590000468A14319601C1D21680568A9432160F6
:1005A0004179102905D011440A68006802430A60A5
:1005B00030BD196802681143196021680068014361
:1005C000216030BD0079104402688A43026030BD6A
:1005D0000004014010B50121042000F0C1FA0121FE
:1005E000082000F0BDFA0121102000F0B9FA012125
:1005F000202000F0B5FA0121402000F0B1FA0121DD
:10060000802000F0ADFA0121BDE81040080200F0A2
:10061000A7BA000010B58A0721F003040649120F9B
:1006200021440F238C6893409C438C608B689040DE
:1006300003438B6010BD000000000140F0B5CC7892
:10064000002204F00F03E40601D58C7823430C78D4
:100650004FF00F0C14F0FF0F4FF0010E1BD0056888
:100660000E880EFA02F42640A64210D196000CFA2B
:1006700006F725EA070703FA06F5CE783D43282E4C
:1006800002D0482E02D002E0446100E00461521C16
:10069000082AE5D305600A88FF2A1CD9446800228D
:1006A00002F108060EFA06F50E882E40AE420ED173
:1006B00096000CFA06F7BC4303FA06F7CE783C43E3
:1006C000282E00D14561CE78482E00D10561521CFC
:1006D000082AE5D34460F0BD0246002092680A4231
:1006E00000D0012070474161704701617047FEE70B
:1006F0007FB50121084600F033FA4FF48064ADF86D
:100700000C4048208DF80F0003208DF80E0003A93F
:100710001348FFF793FF0A210320FFF77BFF0C200C
:1007200000948DF8050000248DF8044001258DF813
:1007300006506846FFF716FF4FF4E06000F0F8F946
:1007400028208DF808008DF809408DF80A408DF8B2
:100750000B5002A800F0BAF900F06EFB7FBD00005C
:10076000001401402DE9F04700240F20FFF791FE0F
:100770003A4E4FF4806739463046FFF7ADFF012807
:1007800065D037492820087002E00120FFF781FE7C
:1007900039463046FFF7A0FF0028F6D0DFF8C490B6
:1007A0000025B046002602E00120FFF772FE394620
:1007B0004046FFF791FF0028F6D102E00120FFF745
:1007C00068FE39464046FFF787FF0028F6D006E06E
:1007D0000120FFF75EFE641CE4B21E2C37D23946BE
:1007E0004046FFF779FF0028F2D119F80500494685
:1007F000400809F80500082C03D340F0800009F8F0
:100800000500761C0024F6B2082ED0D36D1CEDB284
:10081000042DC7D3C97899F80200C943C9B28842E8
:1008200015D11149432816D005DC152809D04028D8
:100830000DD1492006E044280BD0462807D141209D
:1008400000E04220087007490120491E0870BDE8F9
:10085000F0874320F6E74420F4E70000001401404D
:100860000B0000200E0000200A00002070B50024BC
:1008700000F02EF86420FFF743FE382000F070F8F7
:100880000C2000F06DF8062000F06AF8012000F05E
:1008900067F86420FFF734FE802000F061F80B4D0C
:1008A000285D00F08FF8641C64B20B2CF8DBC020CC
:1008B00000F056F8054D00240C35285D00F082F854
:1008C000641C64B2082CF8DB70BD0000500F0008F7
:1008D000F8B54FF40050ADF800001025154E8DF816
:1008E000035003248DF8024069463046FFF7A6FE08
:1008F000A802ADF800008DF803508DF8024069465B
:100900003046FFF79BFEE802ADF800008DF803507B
:100910008DF8024069463046FFF790FEFF20ADF8A3
:1009200000008DF803508DF8024069460248FFF739
:1009300085FEF8BD00100140001C014010B50446C2
:10094000C92000F00DF8E0B2BDE8104000F03AB860
:100950000249CA684240CA60704700000020014056
:1009600070B504461420FFF7BBFD14494FF47F0215
:100970000A600C60124C49142046FFF7B4FE4FF495
:1009800080412046FFF7AFFE4FF400452946204640
:10099000FFF7A9FE0A20FFF7A3FD29462046FFF72F
:1009A000A4FE0A20FFF79CFD29462046FFF79BFE88
:1009B000BDE870400A20FFF793BD0000101C014005
:1009C0000010014070B504461420FFF789FD14495A
:1009D0004FF47F020A600C60124C49142046FFF766
:1009E00084FE4FF480412046FFF77DFE4FF4004522
:1009F00029462046FFF777FE0A20FFF771FD2946BA
:100A00002046FFF772FE0A20FFF76AFD29462046BE
:100A1000FFF769FEBDE870400A20FFF761BD0000E6
:100A2000101C014000100140FEE70000F8B54FF433
:100A30000050ADF8000002208DF802001C4E10247A
:100A40008DF8034069463046FFF7F8FDE501ADF843
:100A5000005069463046FFF7F1FDADF80050694699
:100A60001448FFF7EBFD0120134DADF80000694677
:100A70002846FFF7E3FD4020ADF800006946284610
:100A8000FFF7DCFD6001ADF8000069463046FFF776
:100A9000D5FDADF8004069462846FFF7CFFD04209C
:100AA000ADF8000069462846FFF7C8FDF8BD000014
:100AB00000200140001001400014014010B5FFF774
:100AC000B5FFBDE81040FFF7D1BC704730B50F232C
:100AD000C27801780125F2B1144A126801F1E021CF
:100AE00002F4E062C2F5E062120AC2F10404D340EB
:100AF0004278A24084781C401443220181F80024EB
:100B0000007800F01F018D404009800000F1E020D6
:100B1000C0F8005130BD01F01F0085404809800039
:100B200000F1E020C0F8805130BD00000CED00E085
:100B30000249084302490860704700000000FA05B6
:100B40000CED00E070470000044A0029D16901D093
:100B5000014300E08143D161704700000010024072
:100B6000044A0029916901D0014300E08143916169
:100B700070470000001002407047000038B54FF485
:100B80008054ADF8004010208DF803000320064D7E
:100B90008DF8020069462846FFF750FD2146284699
:100BA000FFF7A3FD38BD0000001401400CB5002282
:100BB000264800920192016841F4803101604FF4AF
:100BC000A063016801F4003101910099491C009172
:100BD000019911B900999942F3D10168890333D57C
:100BE000012101911A490A6842F010020A600A685C
:100BF00022F003020A600A6842F002020A604168B9
:100C0000416041684160416841F4806141604168F0
:100C100021F47C114160416841F4E81141600168B0
:100C200041F08071016001688901FCD5416821F0C3
:100C300003014160416841F0020141604168C1F334
:100C400081010229FAD10CBD01920CBD00100240B5
:100C500000200240704700000C48016841F001018B
:100C6000016041680A4A114041600168094A114027
:100C70000160016821F480210160416821F4FE01D6
:100C800041604FF41F018160FFF790BF00100240E8
:100C90000000FFF8FFFFF6FE10B501218C0720468B
:100CA00000F066F800281BD00121204600F051F822
:100CB0000C490878401CC0B208700A2810D30024E0
:100CC0000C700949094A0868401C086013785B1CCD
:100CD0001370322800D30C60BDE81040FFF70CBB46
:100CE00010BD00000C0000200000002008000020C3
:100CF0007FB501210846FFF727FF6320ADF8040008
:100D00004720ADF8000000244FF08045ADF80640C4
:100D1000ADF802406946284600F040F80121284617
:100D200000F017F801221146284600F02DF80121A5
:100D3000284600F011F81C208DF80C008DF80D40AD
:100D400001208DF80E008DF80F0003A8FFF7BEFEFE
:100D50007FBDC943018270470029018802D041F05C
:100D6000010101E021F0010101807047808C704792
:100D700002460020138A92890B4202EA010202D045
:100D8000002A00D001207047002A828901D00A433E
:100D900000E08A43828170478184704730B50288C1
:100DA0001B4C1C4DA0420DD0A8420BD0B0F1804F7F
:100DB00008D0194B984205D0184B984202D0184BD6
:100DC000984203D122F070034A881A43154B984287
:100DD00006D0154B984203D022F44073CA881A43B8
:100DE00002808A8882850A880285A0420AD0A842A9
:100DF00008D00E4A904205D00D4A904202D00D4ACA
:100E0000904201D1097A01860121818230BD000022
:100E1000002C014000340140000400400008004064
:100E2000000C004000100040001400400040014051
:100E300000440140004801400EB501210220FFF7A7
:100E400083FE0120ADF804004720ADF8000010201B
:100E5000ADF8020069460248FFF7A0FF0EBD000092
:100E600000040040FEE7000038B54FF40044ADF840
:100E7000004010208DF803000320064D8DF802007D
:100E800069462846FFF7DAFB21462846FFF72DFC86
:100E900038BD0000002001404FF0E020016921F042
:100EA0000401016170470000FFF7F6FFFFF792FBB6
:100EB000FFF7DAFFFFF7DAFCFFF71AFCFFF718FF7E
:100EC000FFF7FCFDFFF75AFE1F4E204C002520784F
:100ED0000528FCD325706078401CC0B260702828BB
:100EE00004D365704FF40040FFF732FDE078401EF8
:100EF00010F0FF00E07003D10120E070FFF7B6FAB8
:100F000030780128E3D1357094F90200413809287E
:100F100014D2DFE800F005080B0E131313131100B1
:100F2000FFF7C2F90AE0FFF7ABF907E0FFF7CEF9E8
:100F300004E0FFF785FA01E0FFF798FA94F9020060
:100F4000FFF7FCFCC3E700000D00002008000020B4
:100F500048616E74656368204D435500436F6D6D45
:100F6000616E643A00000000880F00080000002055
:100F7000140000006C0100089C0F00081400002001
:100F800064060000880100080000000028282828C6
:0C0F90000000490000000000000000000C
:0400000508000131BD
:00000001FF
