:020000040800F2
:1000000080060020D5010008370F00080B0A000801
:10001000950E00089B050008D112000800000000A2
:10002000000000000000000000000000E50F0008D4
:10003000AD07000800000000B10F0008C110000863
:10004000EF010008EF010008EF010008EF010008D0
:10005000EF010008EF010008EF010008EF010008C0
:10006000EF010008EF010008EF010008EF010008B0
:10007000EF010008EF010008EF010008EF010008A0
:10008000EF010008EF010008EF010008EF01000890
:10009000EF010008EF010008EF010008EF01000880
:1000A000EF010008EF010008EF010008EF01000870
:1000B00005110008EF010008EF010008EF0100083A
:1000C000EF010008EF010008EF010008EF01000850
:1000D000EF010008EF010008EF010008EF01000840
:1000E00033080008EF010008EF010008EF010008E5
:1000F000EF010008EF010008EF010008EF01000820
:10010000EF010008EF010008EF010008EF0100080F
:10011000EF010008EF010008EF010008EF010008FF
:10012000EF010008EF010008EF010008EF010008EF
:1001300000F002F800F03FF80AA090E8000C8244BA
:100140008344AAF10107DA4501D100F034F8AFF297
:10015000090EBAE80F0013F0010F18BFFB1A43F0A5
:10016000010318475818000078180000103A24BFFF
:1001700078C878C1FAD8520724BF30C830C144BF0C
:1001800004680C607047000000230024002500264E
:10019000103A28BF78C1FBD8520728BF30C148BFEA
:1001A0000B607047642900F07180002070471FB514
:1001B0001FBD10B510BD00F0BAF91146FFF7F7FFEB
:1001C00001F0B0F800F0D8F903B4FFF7F2FF03BC78
:1001D00000F0DCF90948804709480047FEE7FEE7E0
:1001E000FEE7FEE7FEE7FEE7FEE7FEE7FEE7FEE7E7
:1001F00004480549054A064B70470000C510000831
:1002000031010008800000208006002080020020CC
:10021000800200200FB41CB5074B06AA7B44694638
:100220000090059800F06BF90020694600F07AF91B
:100230001CBC5DF814FB00000503000070B504460B
:1002400085690068C10601D5302600E02026C00778
:1002500007D070BDD4E9012130469047206A401C88
:1002600020626D1EF6D570BD70B5044685690078B4
:10027000C00707D170BDD4E9012120209047206A32
:10028000401C20626D1EF6D570BD00002DE9F041C6
:100290000646002410687529314616A510D0AFF324
:1002A0000080002802DA404213A507E031688A077F
:1002B00001D512A502E0490704D511A5012401E0EA
:1002C000AFF3008000210A2206F1240709E0B0FB09
:1002D000F2FCB0FBF2F302FB1C00303078541846FD
:1002E000491C0028F3D123462A463046BDE8F04198
:1002F00000F0A7B8000000002D0000002B00000057
:10030000200000002DE9F05F894604464FF0000A06
:10031000DFF824B1FB44C0F820A02046E1688847FC
:1003200000287DD0252806D0D4E901219047206AF5
:10033000401C2062F1E700255F462046E1688847BF
:100340002028064607DB312E05D2B81910F8200CFC
:1003500008B10543F1E7A80701D525F00405C4F865
:100360001CA00027C4F818A02A2E09D0304600F09F
:10037000CBFF38B304EB8708303EC8F8186019E0AB
:1003800059F8041B204604EB87029161E168884715
:10039000012F064618D1E069002820DA25F0200553
:1003A0001DE0D8F8180000EB800006EB4000303864
:1003B000C8F818002046E1688847064600F0A4FF08
:1003C0000028EED1012F0AD02E2E08D12046E16858
:1003D00088477F1C0646022F45F02005C4DBA06934
:1003E000002803DA404245F00105A061E80701D08A
:1003F00025F01005A6B1A6F14100192802D8203633
:1004000045F400654A463146204625604D46FFF7D3
:10041000C9FE60B1012807D0ED1D25F0070000E0FE
:1004200007E000F1080978E705F1040975E73046AF
:100430007AE7206ABDE8F09F901600007047704789
:1004400070472DE9F0470D4699469246044600F163
:1004500024080168880604D5E06921F010012160B4
:1004600000E00120A84201DD471B00E00027A16950
:100470007A1902EB0900081AA0612078C00602D49C
:100480002046FFF7DBFE002608E0D4E901211AF838
:1004900006009047206A401C761C20624E45F4DB23
:1004A0002078C0060AD52046FFF7C8FE06E0D4E94A
:1004B000012130209047206A401C2062381EA7F19D
:1004C0000107F4DC07E0D4E9012118F805009047A2
:1004D000206A401C2062281EA5F10105F3DC20469D
:1004E000FFF7C2FE2078000602D50220BDE8F087A3
:1004F0000120FBE701694A1C02610878704700B5DA
:100500008FB0CDE901310021059105497944CDE94C
:10051000031011466846FFF7F5FE0FB000BD00005E
:10052000E5FFFFFF0A6802F8010B0A607047754695
:1005300000F028F8AE4605006946534620F0070053
:10054000854618B020B5FFF753FEBDE820404FF0B8
:1005500000064FF000074FF000084FF0000B21F0AD
:100560000701AC46ACE8C009ACE8C009ACE8C0097A
:10057000ACE8C0098D4670470446AFF300802046C2
:10058000FFF722FE004870471C0000200149182098
:10059000ABBEFEE7260002007047FEE705496FF09C
:1005A0003100087004490870044908700449087053
:1005B0007047000004000020050000200600002015
:1005C00007000020044932200870044908700449DB
:1005D00008700449087070470400002005000020DE
:1005E000060000200700002006496FF01300064AAD
:1005F0000870322111700549087005493C200870C7
:1006000070470000040000200500002006000020C4
:10061000070000202DE9F0414848494C4FF40051B3
:1006200090F90020474D8F102068002A1ADD904273
:1006300003D2284600F0E7F902E0284600F0E1F98D
:100640003946284600F0DDF93F48414E90F9001048
:100650003E48002928DD22688A420FD2394600F040
:10066000D2F90EE0E9DA52429042E6D2284600F092
:10067000C8F93946284600F0C6F9E5E7394600F0E2
:10068000C0F90121304600F0BCF932484FF4007740
:1006900090F90000002829DD2168814211D2402113
:1006A000304600F0B0F910E0E8DA226849428A42A8
:1006B000E4D2394600F0A5F90121304600F0A3F953
:1006C000E3E74021304600F09CF93946284600F027
:1006D00098F9214890F90000002815DD2168814231
:1006E00021D21021304600F08EF920E0E9DA2168AD
:1006F00040428142E5D24021304600F082F939463D
:10070000284600F080F9E4E70DDA21684042814292
:1007100009D21021304600F074F93046BDE8F041AE
:10072000042100F070B91021304600F06AF930461B
:10073000BDE8F041042100F064B90000040000208D
:1007400000000020002001400500002000100140B2
:100750000014014006000020070000200649322056
:10076000074A087005496FF0130008703C211170AA
:1007700004490870704700000400002005000020B4
:1007800006000020070000200449002008700449EA
:10079000087004490870044908707047040000207C
:1007A000050000200600002007000020704710B55B
:1007B000044602E08C2000F005F8641EE4B2F9D291
:1007C00010BD000031B50C4D0098012184B22846BF
:1007D00000F0F8FC2146284600F014FD03E028460E
:1007E00000F0FAFC0446012CF9D82846BDE8384050
:1007F000002100F0E7BC00000004004000EBC00155
:100800004FF0E0204161016941F00101016101699E
:10081000C903FCD5002101618161704700B5024622
:100820004FF47A7302E01846FFF7E8FF521EFAD23F
:1008300000BD10B54FF48064204600F011F8002888
:1008400006D0204600F006F8BDE8104000F018B9C8
:1008500010BD000001490860704700001404014009
:10086000064A014600201268044B0A4014331B68F4
:100870000B4202D0002A00D0012070470004014042
:1008800030B51A4A8379016853B313688B431360F8
:10089000111D0B680468A3430B60017911440B68B8
:1008A000046823430B60114B083319680468A143A3
:1008B00019601C1D21680568A94321604179102930
:1008C00005D011440A68006802430A6030BD196807
:1008D000026811431960216800680143216030BD3E
:1008E0000079104402688A43026030BD0004014070
:1008F00010B50121042000F069FB0121082000F05F
:1009000065FB0121102000F061FB0121202000F097
:100910005DFB0121402000F059FB0121802000F007
:1009200055FB0121BDE81040080200F04FBB00005C
:1009300010B58A0721F003040649120F21440F2342
:100940008C6893409C438C608B68904003438B6021
:1009500010BD000000000140F0B5CC78002204F08A
:100960000F03E40601D58C7823430C784FF00F0C6D
:1009700014F0FF0F4FF0010E1BD005680E880EFA21
:1009800002F42640A64210D196000CFA06F725EA9A
:10099000070703FA06F5CE783D43282E02D0482EED
:1009A00002D002E0446100E00461521C082AE5D351
:1009B00005600A88FF2A1CD94468002202F1080653
:1009C0000EFA06F50E882E40AE420ED196000CFAB5
:1009D00006F7BC4303FA06F7CE783C43282E00D135
:1009E0004561CE78482E00D10561521C082AE5D316
:1009F0004460F0BD0246002092680A4200D0012007
:100A000070474161704701617047FEE77FB5012182
:100A1000084600F0DBFA4FF48064ADF80C40482043
:100A20008DF80F0003208DF80E0003A91348FFF77F
:100A300093FF0A210320FFF77BFF0C2000948DF821
:100A4000050000248DF8044001258DF80650684605
:100A5000FFF716FF4FF4E06000F0A0FA28208DF8B1
:100A600008008DF809408DF80A408DF80B5002A857
:100A700000F062FA00F016FC7FBD00000014014097
:100A80002DE9F04700240F20FFF791FE3A4E4FF476
:100A9000806739463046FFF7ADFF012865D03749FA
:100AA0002820087002E00120FFF781FE3946304619
:100AB000FFF7A0FF0028F6D0DFF8C4900025B0466D
:100AC000002602E00120FFF772FE39464046FFF79C
:100AD00091FF0028F6D102E00120FFF768FE3946B9
:100AE0004046FFF787FF0028F6D006E00120FFF719
:100AF0005EFE641CE4B21E2C37D239464046FFF736
:100B000079FF0028F2D119F805004946400809F894
:100B10000500082C03D340F0800009F80500761C7E
:100B20000024F6B2082ED0D36D1CEDB2042DC7D32D
:100B3000C97899F80200C943C9B2884215D1114950
:100B4000432816D005DC152809D040280DD14920AE
:100B500006E044280BD0462807D1412000E042207F
:100B6000087007490120491E0870BDE8F08743203E
:100B7000F6E74420F4E70000001401400B000020D9
:100B80000E0000200A00002070B5002400F02EF8AE
:100B90006420FFF743FE382000F098F80C2000F0A6
:100BA00095F8062000F092F8012000F08FF86420FC
:100BB000FFF734FE802000F089F80B4D285D00F02F
:100BC000B7F8641C64B20B2CF8DBC02000F07EF890
:100BD000054D00241035285D00F0AAF8641C64B2AD
:100BE0000B2CF8DB70BD000088190008F8B54FF435
:100BF0000050ADF800001025154E8DF80350032469
:100C00008DF8024069463046FFF7A6FEA802ADF80F
:100C100000008DF803508DF8024069463046FFF71A
:100C20009BFEE802ADF800008DF803508DF80240FD
:100C300069463046FFF790FEFF20ADF800008DF8C2
:100C400003508DF8024069460248FFF785FEF8BD63
:100C500000100140001C014010B50446CE2000F0F9
:100C600035F8E0B2BDE8104000F062B8F8B50E46C5
:100C7000002402468DF803400EA16846FFF7CAFA29
:100C8000832000F023F86D46285D00F051F8641CC5
:100C9000032CF9DB324607A16846FFF7BBFAC320F5
:100CA00000F014F80024285D00F042F8641C032CC6
:100CB000F9DBF8BD25303364000000000249CA6842
:100CC0004240CA60704700000020014070B50446F1
:100CD0001420FFF793FD14494FF47F020A600C6063
:100CE000124C49142046FFF78CFE4FF480412046F9
:100CF000FFF787FE4FF4004529462046FFF781FEA7
:100D00000A20FFF77BFD29462046FFF77CFE0A20DC
:100D1000FFF774FD29462046FFF773FEBDE87040DB
:100D20000A20FFF76BBD0000101C014000100140BD
:100D300070B504461420FFF761FD14494FF47F029B
:100D40000A600C60124C49142046FFF75CFE4FF419
:100D500080412046FFF755FE4FF4004529462046C6
:100D6000FFF74FFE0A20FFF749FD29462046FFF70F
:100D70004AFE0A20FFF742FD29462046FFF741FEC2
:100D8000BDE870400A20FFF739BD0000101C01408B
:100D900000100140F8B54FF40060ADF800004824A1
:100DA0000A4E8DF8034003258DF8025069463046FF
:100DB000FFF7D2FDB014ADF800008DF803408DF8B8
:100DC000025069463046FFF7C7FDF8BD00080140F4
:100DD0002DE9F0412A4C2B4D4FF48056A079314635
:100DE000401CA0712846FFF705FE2179884207D0F4
:100DF000A0783146401CA0702846FFF7FBFD20710B
:100E00004FF4006631462846FFF7F4FD61798842C9
:100E100007D0E0783146401CE0702846FFF7EAFD35
:100E20006071A079642828D10021A171A078E278AE
:100E300040065206A170000E150EE17000F0A9FBED
:100E4000114E124F32463B4600F0B6FBDFF84080B1
:100E50000022434600F0C8FA00F06EFB20702846DE
:100E600000F097FB32463B4600F0A6FB00224346CB
:100E700000F0BAFA00F060FB6070BDE8F08100009D
:100E800012000020000801408FC2F5285C8FE03F6F
:100E90000000E03FFEE70000F8B54FF40050ADF869
:100EA000000002208DF802001C4E10248DF8034033
:100EB00069463046FFF750FDE501ADF80050694640
:100EC0003046FFF749FDADF8005069461448FFF77A
:100ED00043FD0120134DADF8000069462846FFF799
:100EE0003BFD4020ADF8000069462846FFF734FD81
:100EF0006001ADF8000069463046FFF72DFDADF802
:100F0000004069462846FFF727FD0420ADF80000A1
:100F100069462846FFF720FDF8BD0000002001408B
:100F2000001001400014014010B5FFF7B5FFBDE807
:100F30001040FFF729BC704730B50F23C278017805
:100F40000125F2B1144A126801F1E02102F4E062D5
:100F5000C2F5E062120AC2F10404D3404278A24012
:100F600084781C401443220181F80024007800F0AA
:100F70001F018D404009800000F1E020C0F80051C1
:100F800030BD01F01F0085404809800000F1E020DD
:100F9000C0F8805130BD00000CED00E0024908436C
:100FA00002490860704700000000FA050CED00E0FF
:100FB00070470000044A0029D16901D0014300E0D4
:100FC0008143D1617047000000100240044A0029AB
:100FD000916901D0014300E08143916170470000B5
:100FE000001002407047000038B54FF48054ADF84F
:100FF000004010208DF803000320064D8DF80200FC
:1010000069462846FFF7A8FC21462846FFF7FBFC67
:1010100038BD0000001401400CB5002226480092A3
:101020000192016841F4803101604FF4A0630168CE
:1010300001F4003101910099491C0091019911B905
:1010400000999942F3D10168890333D501210191B7
:101050001A490A6842F010020A600A6822F0030284
:101060000A600A6842F002020A6041684160416811
:101070004160416841F480614160416821F47C1124
:101080004160416841F4E8114160016841F08071BC
:10109000016001688901FCD5416821F003014160CC
:1010A000416841F0020141604168C1F381010229B8
:1010B000FAD10CBD01920CBD00100240002002408C
:1010C000704700000C48016841F00101016041686F
:1010D0000A4A114041600168094A114001600168F3
:1010E00021F480210160416821F4FE0141604FF448
:1010F0001F018160FFF790BF001002400000FFF861
:10110000FFFFF6FE10B501218C07204600F066F8BF
:1011100000281BD00121204600F051F80C49087826
:10112000401CC0B208700A2810D300240C70094972
:10113000094A0868401C086013785B1C1370322849
:1011400000D30C60BDE81040FFF764BA10BD00008A
:101150000C00002000000020080000207FB50121C5
:101160000846FFF727FF6320ADF804004720ADF8DD
:10117000000000244FF08045ADF80640ADF8024075
:101180006946284600F040F80121284600F017F88B
:1011900001221146284600F02DF80121284600F0D2
:1011A00011F81C208DF80C008DF80D4001208DF8F1
:1011B0000E008DF80F0003A8FFF7BEFE7FBDC943E8
:1011C000018270470029018802D041F0010101E04D
:1011D00021F0010101807047808C70470246002099
:1011E000138A92890B4202EA010202D0002A00D03F
:1011F00001207047002A828901D00A4300E08A4317
:10120000828170478184704730B502881B4C1C4D29
:10121000A0420DD0A8420BD0B0F1804F08D0194B9E
:10122000984205D0184B984202D0184B984203D1EF
:1012300022F070034A881A43154B984206D0154B8A
:10124000984203D022F44073CA881A4302808A88E5
:1012500082850A880285A0420AD0A84208D00E4A98
:10126000904205D00D4A904202D00D4A904201D1E1
:10127000097A01860121818230BD0000002C0140E5
:10128000003401400004004000080040000C004011
:1012900000100040001400400040014000440140A4
:1012A000004801400EB501210220FFF783FE012016
:1012B000ADF804004720ADF800001020ADF80200A2
:1012C00069460248FFF7A0FF0EBD00000004004081
:1012D000FEE7000008B54FF40040ADF80000102014
:1012E0008DF8030003208DF8020069460448FFF7DB
:1012F00033FB4FF480510348FFF785FB08BD000026
:10130000002001400014014030380A2801D2012099
:101310007047002070474FF0E020016921F0040180
:1013200001617047FFF7F7FFFFF7E2FAFFF7D2FF1F
:10133000FFF72AFCFFF76AFBFFF710FFFFF7F4FD4A
:10134000FFF752FEFFF726FD234E244C00252078A0
:101350000528FCD325706078401CC0B26070282836
:101360000AD365704FF40040FFF7A8FC1C480178D1
:101370001C480078FFF77AFCE078401E10F0FF0070
:10138000E07003D10120E070FFF7FEF9FFF720FDC8
:1013900030780128DBD1357094F9020041380928F2
:1013A00014D2DFE800F005080B0E1313131311001D
:1013B000FFF708F90AE0FFF7F1F807E0FFF714F983
:1013C00004E0FFF7CBF901E0FFF7DEF994F9020042
:1013D000FFF742FCBBE700000D00002008000020E2
:1013E000130000201200002010B591EA030F48BF3F
:1013F00083F0004300F1E681841A71EB030C05D2FF
:10140000121943EB0C03001B61EB0C01DFF824E124
:101410004FEA1154A4EB135C1EEA430F18BF9EEA77
:10142000445F73D023EA0E03DCF1200E21EA04515D
:1014300043F4801332D322FA0CFE10EB0E0023FA91
:101440000CFE41EB0E01CCF1200E03FA0EFE10EB68
:101450000E0051F10001B1F5801FCCF1200E32D207
:1014600001EB045112FA0EF2BDE8104058BF70476C
:10147000401C38BF5FEA420218BF7047002814BF03
:1014800020F0010041F100014FEA410313F5001F74
:1014900038BF7047A1F1C04100F086B9012A43EB83
:1014A0000302ACF1200CDCF11F0E32BF4FF0000E36
:1014B00023FA0CF310EB030041EB0451B4EB115F82
:1014C000D0D0A1EB045101F5801149085FEA30004A
:1014D00001EB04510ED350F1000038BF12FA0EFE9A
:1014E00008D1BDE81040C9E7401C38BF5FEA42029E
:1014F000CAD1C3E7BDE810404FEA410313F5001F0E
:1015000038BF7047A1F1C04100F04EB99EEA445F78
:1015100008D011EA5E0FBDE8104004BF01F00041A1
:1015200000207047BDE8104070B500F0EFF800BF34
:1015300064FBBE3E0000E0FF4FEA1153A3F5806359
:10154000D3F11E03A8BFD3F1200C08DB4FF00042FB
:1015500042EAC12252EA505232FA03F0704709427D
:101560000BD4102BC4BF0020704703F5787CBCF16E
:10157000FF3F05D04FF0FF3070474FF0000070473D
:1015800070B500F0C3F800BF499224800020704776
:10159000F0E7B0FA80F310FA03F10AD0C3F11D03AB
:1015A00003F580634FEA41504FEA035202EBD12129
:1015B00070474FF000007047DFF848C170B51CEA73
:1015C000111E1EBF1CEA13159EEA0C0F95EA0C0FA4
:1015D00000F06F8081EA030423EA4C134EEAD47EC4
:1015E00021EA4C1141F4801143F48013AE44A1FB75
:1015F000024CA0FB0365AEF17F7E361955EB0C055E
:10160000A1FB034C4CF10003A0FB021C16EB0C06E3
:10161000654153F10003094218BF46F0010613F477
:10162000007F0BD14FEA03314FEA0530340341EA22
:10163000155140EA16506FF003020AE04FEAC32149
:101640004FEAC520F40241EA555140EA56506FF086
:10165000020202EB2E4201EB025585EACE710AD05E
:101660005FEA440C18BF24F0004450F1000041F13F
:10167000000120EAD47040F2FE7C624500D270BDC9
:10168000A84214BF4FF080444FF04044002E08BFE2
:101690000024BEF1806FA8BFA1F1C041BDE8704039
:1016A00080F282804FF0000001F1C04101F0004162
:1016B00070479EEA0C0F0CEA131518BF95EA0C0F41
:1016C00006D04FF0000081EA030E0EF0004170BD1D
:1016D00000F01CF88900013E00F007B800F009B8DE
:1016E0004FEA430C5FEA5C5C08D081EA030100F03A
:1016F0005BB84FEA410C5FEA5C5CF6D14FF000004A
:10170000014970470000FF070000F87F0EF1020E4C
:101710002EF0030E5EF8046B364205D4012A43EB2B
:10172000030515F5001F12D8012841EB010C1CF52B
:10173000001F0CD80ED14FEAD17C15F5001F0CEB21
:101740004C0C0CF1020C08BF4CEBD37C04E04FF0C6
:10175000080C01E04FEAD37C0CEB4C0526FA05F6A9
:1017600006F00706B6F1040C06D20EEB860CBDE8B7
:1017700070404CF0010C6047DFE80CF0090B0202EE
:101780004FF000414FF00000A1F5002170BD194657
:101790001046012851EB010418BFD4F5001484BF92
:1017A000002001F0004170BD0808A0F500114FEACB
:1017B0003101704710B591EA030F48BF83F0004331
:1017C0003FF51AAE841A71EB030C07D212198CF094
:1017D000004C43EB0C03001B61EB0C01DFF8A4E1B0
:1017E0004FEA1154A4EB135C1EEA430F18BF9EEAA4
:1017F000445F00F0B08023EA6E03524221EA0451B4
:10180000C3EB6E0338BF5B1EDCF1200E25D322FA3A
:101810000CFE10EB0E0043FA0CFE41EB0E01CCF176
:10182000200E03FA0EFE10EB0E0051F10001CCF178
:10183000200E29D412FA0EF201EB0451BDE810403B
:1018400058BF7047401C1CBFB2F1004F70470028C2
:101850000CBF491C20F00100704712EB020E43EB55
:10186000030218BF4FF0010E4EEA4202ACF1200C09
:10187000DCF11E0E54D943FA0CFE10EB0E0051F1B0
:10188000FF31CCF11E0ED5D50EF1010E12FA0EFE6F
:10189000404141EB010101EB445C5FEA5C5C10D923
:1018A00010EBDE7001EB045138BFBEF1004FBDE814
:1018B000104018BF704700280CBF491C20F00100E1
:1018C000704730D24FEAD42C11F5001124F4006493
:1018D0001BD0B1FA81F20B3AA41AA41ED2F1200354
:1018E000914030FA03F31943904001EBCC71002C86
:1018F00001EB0451BDE81040A8BF704701F1C041A1
:101900004FF0000001F000417047B0FA80F310FA88
:1019100003F100D110BDE41A173C4805C90AE4E7F9
:1019200001EB045110BD491001EB0451BDE810401A
:101930004FEA300002E04FF0000170474A0008BF54
:101940000042F8D0B2F5001F28BF704701F00041F7
:101950004FF0000070479EEA445F07D011EA5E0F27
:10196000BDE8104004BF002100207047BDE81040D2
:1019700070B5FFF7CBFE00BF40DFF63E83F00041BD
:10198000104670470000E0FF464C3A2020202063BC
:101990006D2F73202020200046523A202020206303
:1019A0006D2F73202020200004000008000000009C
:1019B000000000020001000010000000DC19000817
:1019C000000000201C0000006C010008F81900084D
:1019D0001C000020640600008801000800000000D0
:1019E00032323232000049000000000000000000E6
:0819F0000000000000000000EF
:0400000508000131BD
:00000001FF
