:020000040800F2
:1000000088060020D50100089F0F0008A50B0008F6
:10001000FD0E00083D0600087914000800000000ED
:10002000000000000000000000000000D1100008E7
:10003000510800080000000019100008AD11000868
:10004000EF010008EF010008EF010008EF010008D0
:10005000EF010008EF010008EF010008EF010008C0
:10006000EF010008EF010008EF010008EF010008B0
:10007000EF010008EF010008EF010008EF010008A0
:10008000EF010008EF010008EF010008EF01000890
:10009000EF010008EF010008EF010008EF01000880
:1000A000EF010008EF010008EF010008EF01000870
:1000B000F1110008EF010008EF010008EF0100084E
:1000C000EF010008EF010008EF010008EF01000850
:1000D000EF010008EF010008EF010008EF01000840
:1000E000F5080008EF010008EF010008EF01000823
:1000F000EF010008EF010008EF010008EF01000820
:10010000EF010008EF010008EF010008EF0100080F
:10011000EF010008EF010008EF010008EF010008FF
:10012000EF010008EF010008EF010008EF010008EF
:1001300000F002F800F03FF80AA090E8000C8244BA
:100140008344AAF10107DA4501D100F034F8AFF297
:10015000090EBAE80F0013F0010F18BFFB1A43F0A5
:1001600001031847F813000018140000103A24BFC8
:1001700078C878C1FAD8520724BF30C830C144BF0C
:1001800004680C607047000000230024002500264E
:10019000103A28BF78C1FBD8520728BF30C148BFEA
:1001A0000B607047642900F07180002070471FB514
:1001B0001FBD10B510BD00F0BAF91146FFF7F7FFEB
:1001C00001F084F900F0D8F903B4FFF7F2FF03BCA3
:1001D00000F0DCF90948804709480047FEE7FEE7E0
:1001E000FEE7FEE7FEE7FEE7FEE7FEE7FEE7FEE7E7
:1001F00004480549054A064B70470000B111000844
:1002000031010008880000208806002088020020B4
:10021000880200200FB41CB5074B06AA7B44694630
:100220000090059800F06BF90020694600F07AF91B
:100230001CBC5DF814FB00000503000070B504460B
:1002400085690068C10601D5302600E02026C00778
:1002500007D070BDD4E9012130469047206A401C88
:1002600020626D1EF6D570BD70B5044685690078B4
:10027000C00707D170BDD4E9012120209047206A32
:10028000401C20626D1EF6D570BD00002DE9F041C6
:100290000646002410687529314616A510D0AFF324
:1002A0000080002802DA404213A507E031688A077F
:1002B00001D512A502E0490704D511A5012401E0EA
:1002C000AFF3008000210A2206F1240709E0B0FB09
:1002D000F2FCB0FBF2F302FB1C00303078541846FD
:1002E000491C0028F3D123462A463046BDE8F04198
:1002F00000F0A7B8000000002D0000002B00000057
:10030000200000002DE9F05F894604464FF0000A06
:10031000DFF824B1FB44C0F820A02046E1688847FC
:1003200000287DD0252806D0D4E901219047206AF5
:10033000401C2062F1E700255F462046E1688847BF
:100340002028064607DB312E05D2B81910F8200CFC
:1003500008B10543F1E7A80701D525F00405C4F865
:100360001CA00027C4F818A02A2E09D0304601F09E
:100370009FF838B304EB8708303EC8F8186019E0DE
:1003800059F8041B204604EB87029161E168884715
:10039000012F064618D1E069002820DA25F0200553
:1003A0001DE0D8F8180000EB800006EB4000303864
:1003B000C8F818002046E1688847064601F078F83A
:1003C0000028EED1012F0AD02E2E08D12046E16858
:1003D00088477F1C0646022F45F02005C4DBA06934
:1003E000002803DA404245F00105A061E80701D08A
:1003F00025F01005A6B1A6F14100192802D8203633
:1004000045F400654A463146204625604D46FFF7D3
:10041000C9FE60B1012807D0ED1D25F0070000E0FE
:1004200007E000F1080978E705F1040975E73046AF
:100430007AE7206ABDE8F09F3012000070477047ED
:1004400070472DE9F0470D4699469246044600F163
:1004500024080168880604D5E06921F010012160B4
:1004600000E00120A84201DD471B00E00027A16950
:100470007A1902EB0900081AA0612078C00602D49C
:100480002046FFF7DBFE002608E0D4E901211AF838
:1004900006009047206A401C761C20624E45F4DB23
:1004A0002078C0060AD52046FFF7C8FE06E0D4E94A
:1004B000012130209047206A401C2062381EA7F19D
:1004C0000107F4DC07E0D4E9012118F805009047A2
:1004D000206A401C2062281EA5F10105F3DC20469D
:1004E000FFF7C2FE2078000602D50220BDE8F087A3
:1004F0000120FBE701694A1C02610878704700B5DA
:100500008FB0CDE901310021059105497944CDE94C
:10051000031011466846FFF7F5FE0FB000BD00005E
:10052000E5FFFFFF0A6802F8010B0A607047754695
:1005300000F028F8AE4605006946534620F0070053
:10054000854618B020B5FFF753FEBDE820404FF0B8
:1005500000064FF000074FF000084FF0000B21F0AD
:100560000701AC46ACE8C009ACE8C009ACE8C0097A
:10057000ACE8C0098D4670470446AFF300802046C2
:10058000FFF722FE00487047240000200149182090
:10059000ABBEFEE7260002007047000070B5244D98
:1005A0000421284600F086FA224E012804D1802139
:1005B000304600F07FFA28B10421284600F07AFA8C
:1005C00018B108E000F01CF915E08021304600F079
:1005D00071FA01280DD0184C2068052802D3206834
:1005E000072802D9206832280AD9BDE8704000F0F7
:1005F0001DB900F04BF8BDE870401E2000F060B956
:100600000421284600F056FA05468021304600F0C5
:1006100051FA85420BD12068052801D200F010F86C
:100620002068072803D9BDE8704000F01DB870BDF0
:1006300000200140001001401C000020FEE70000E7
:1006400005496FF0270008700449087004490870D4
:1006500004490870704700000400002005000020D5
:1006600006000020070000200449282008700449E3
:10067000087004490870044908707047040000209D
:1006800005000020060000200700002006496FF04A
:100690001300064A087028211170054908700549A1
:1006A0003220087070470000040000200500002080
:1006B00006000020070000202DE9F0414848494C81
:1006C0004FF4005190F90020474D8F102068002A08
:1006D0001ADD904203D2284600F0F5F902E02846E0
:1006E00000F0EFF93946284600F0EBF93F48414E5B
:1006F00090F900103E48002928DD22688A420FD276
:10070000394600F0E0F90EE0E9DA52429042E6D2D2
:10071000284600F0D6F93946284600F0D4F9E5E736
:10072000394600F0CEF90121304600F0CAF93248CE
:100730004FF4007790F90000002829DD21688142FC
:1007400011D24021304600F0BEF910E0E8DA22680C
:1007500049428A42E4D2394600F0B3F901213046D9
:1007600000F0B1F9E3E74021304600F0AAF939463C
:10077000284600F0A6F9214890F90000002815DD70
:100780002168814221D21021304600F09CF920E0FE
:10079000E9DA216840428142E5D24021304600F04A
:1007A00090F93946284600F08EF9E4E70DDA216821
:1007B0004042814209D21021304600F082F9304691
:1007C000BDE8F041042100F07EB91021304600F070
:1007D00078F93046BDE8F041042100F072B900001C
:1007E000040000200000002000200140050000203F
:1007F0000010014000140140060000200700002006
:1008000006492820074A087005496FF01300087050
:100810003221117004490870704700000400002064
:1008200005000020060000200700002004490020E9
:10083000087004490870044908700449087070473A
:100840000400002005000020060000200700002012
:10085000704710B5044602E08C2000F005F8641ED5
:10086000E4B2F9D210BD000031B50C4D0098012161
:1008700084B2284600F01CFD2146284600F038FDD1
:1008800003E0284600F01EFD0446012CF9D8284656
:10089000BDE83840002100F00BBD0000000400401E
:1008A00000EBC0014FF0E0204161016941F001011E
:1008B00001610169C903FCD50021016181617047B3
:1008C00000B502464FF47A7302E01846FFF7E8FFDE
:1008D000521EFAD200BD00000549C868401CC8601D
:1008E0000F2803D30020C86000F0F0B87047000064
:1008F0001400002010B54FF48064204600F010F87A
:10090000002806D0204600F005F8BDE8104000F0B1
:1009100085B910BD0149086070470000140401400A
:10092000064A014600201268044B0A4014331B6833
:100930000B4202D0002A00D0012070470004014081
:1009400030B51A4A8379016853B313688B43136037
:10095000111D0B680468A3430B60017911440B68F7
:10096000046823430B60114B083319680468A143E2
:1009700019601C1D21680568A9432160417910296F
:1009800005D011440A68006802430A6030BD196846
:10099000026811431960216800680143216030BD7D
:1009A0000079104402688A43026030BD00040140AF
:1009B00010B50121042000F03DFB0121082000F0CA
:1009C00039FB0121102000F035FB0121202000F02F
:1009D00031FB0121402000F02DFB0121802000F09F
:1009E00029FB0121BDE81040080200F023BB0000F4
:1009F00010B58A0721F003040649120F21440F2382
:100A00008C6893409C438C608B68904003438B6060
:100A100010BD000000000140F0B5CC78002204F0C9
:100A20000F03E40601D58C7823430C784FF00F0CAC
:100A300014F0FF0F4FF0010E1BD005680E880EFA60
:100A400002F42640A64210D196000CFA06F725EAD9
:100A5000070703FA06F5CE783D43282E02D0482E2C
:100A600002D002E0446100E00461521C082AE5D390
:100A700005600A88FF2A1CD94468002202F1080692
:100A80000EFA06F50E882E40AE420ED196000CFAF4
:100A900006F7BC4303FA06F7CE783C43282E00D174
:100AA0004561CE78482E00D10561521C082AE5D355
:100AB0004460F0BD0246002092680A4200D0012046
:100AC0007047416170470161704700002DE9F047B0
:100AD000304F4FF4807631463846FFF7F2FF2E4C08
:100AE000012020702D4D0021284600F001FC01213D
:100AF000284600F0DDFB284600F0E4FB0B28FAD383
:100B00000220207031463846FFF7DDFF00212846DD
:100B100000F0EEFBA94600274EF660284FF4804512
:100B20001F4E04E0484600F0CDFB40450FD8294653
:100B30003046FFF7BFFF0028F4D00021484600F000
:100B4000D7FB0CE0484600F0BDFB404507DD2770B1
:100B5000A7604846BDE8F047002100F0A9BB294640
:100B60003046FFF7A7FF0128ECD04D46484600F07D
:100B7000A9FB60600021284600F09AFB60684FF4F2
:100B8000FA6100EB0010400090FBF1F0A0602770CC
:100B9000BDE8F08700140140140000200008004068
:100BA000000C0140FEE700007FB50121084600F07F
:100BB00041FA4FF48064ADF80C4048208DF80F00E6
:100BC00003208DF80E0003A91348FFF725FF0A2123
:100BD0000320FFF70DFF0C2000948DF80500002482
:100BE0008DF8044001258DF806506846FFF7A8FEF1
:100BF0004FF4E06000F006FA28208DF808008DF828
:100C000009408DF80A408DF80B5002A800F0C8F991
:100C100000F0BEFB7FBD0000001401402DE9F0474D
:100C200000240F20FFF715FE3A4E4FF48067394637
:100C30003046FFF73FFF012865D03749282008706C
:100C400002E00120FFF705FE39463046FFF732FF8C
:100C50000028F6D0DFF8C4900025B046002602E058
:100C60000120FFF7F6FD39464046FFF723FF002835
:100C7000F6D102E00120FFF7ECFD39464046FFF7D0
:100C800019FF0028F6D006E00120FFF7E2FD641C02
:100C9000E4B21E2C37D239464046FFF70BFF00283E
:100CA000F2D119F805004946400809F80500082C5A
:100CB00003D340F0800009F80500761C0024F6B24A
:100CC000082ED0D36D1CEDB2042DC7D3C97899F886
:100CD0000200C943C9B2884215D11149432816D030
:100CE00005DC152809D040280DD1492006E044280C
:100CF0000BD0462807D1412000E042200870074968
:100D00000120491E0870BDE8F0874320F6E7442023
:100D1000F4E70000001401400C0000200E00002049
:100D20000B00002070B5002400F02EF86420FFF7BF
:100D3000C7FD382000F07EF80C2000F07BF806207C
:100D400000F078F8012000F075F86420FFF7B8FD96
:100D5000802000F06FF80B4D285D00F09DF8641CBA
:100D600064B20A2CF8DBC02000F064F8054D0024C2
:100D70000B35285D00F090F8641C64B2082CF8DB99
:100D800070BD000034150008F8B54FF40050ADF800
:100D900000001025154E8DF8035003248DF80240F5
:100DA00069463046FFF738FEA802ADF800008DF81E
:100DB00003508DF8024069463046FFF72DFEE802E9
:100DC000ADF800008DF803508DF8024069463046BA
:100DD000FFF722FEFF20ADF800008DF803508DF8DC
:100DE000024069460248FFF717FEF8BD00100140B7
:100DF000001C014038B5002402468DF8034007A1CD
:100E00006846FFF707FA8A2000F014F86D46285D5F
:100E100000F042F8641C032CF9DB38BD2530336444
:100E2000000000000249CA684240CA6070470000E2
:100E30000020014070B504461420FFF731FD14492D
:100E40004FF47F020A600C60124C49142046FFF7F1
:100E500038FE4FF480412046FFF733FE4FF4004543
:100E600029462046FFF72DFE0A20FFF719FD2946E7
:100E70002046FFF728FE0A20FFF712FD29462046EC
:100E8000FFF71FFEBDE870400A20FFF709BD000014
:100E9000101C01400010014070B504461420FFF7FB
:100EA000FFFC14494FF47F020A600C60124C491495
:100EB0002046FFF708FE4FF480412046FFF701FE71
:100EC0004FF4004529462046FFF7FBFD0A20FFF7B7
:100ED000E7FC29462046FFF7F6FD0A20FFF7E0FC75
:100EE00029462046FFF7EDFDBDE870400A20FFF7D8
:100EF000D7BC0000101C014000100140FEE70000BC
:100F0000F8B54FF40050ADF8000002208DF8020053
:100F10001C4E10248DF8034069463046FFF77CFDD7
:100F2000E501ADF8005069463046FFF775FDADF8B4
:100F3000005069461448FFF76FFD0120134DADF8CE
:100F4000000069462846FFF767FD4020ADF8000025
:100F500069462846FFF760FD6001ADF8000069466C
:100F60003046FFF759FDADF8004069462846FFF7C7
:100F700053FD0420ADF8000069462846FFF74CFDFC
:100F8000F8BD0000002001400010014000140140A5
:100F900010B5FFF7B5FFBDE81040FFF747BC70473D
:100FA00030B50F23C27801780125F2B1144A1268D6
:100FB00001F1E02102F4E062C2F5E062120AC2F13E
:100FC0000404D3404278A24084781C401443220198
:100FD00081F80024007800F01F018D404009800056
:100FE00000F1E020C0F8005130BD01F01F00854045
:100FF0004809800000F1E020C0F8805130BD0000B9
:101000000CED00E002490843024908607047000007
:101010000000FA050CED00E070470000044A0029CA
:10102000D16901D0014300E08143D16170470000E4
:1010300000100240044A0029916901D0014300E0F8
:10104000814391617047000000100240F8B54FF4F1
:101050008070ADF8000048251B4E8DF80350032426
:101060008DF8024069463046FFF7D6FC4020ADF8C7
:1010700000008DF803508DF8024069463046FFF7B6
:10108000CBFC1020ADF800008DF803508DF8024025
:1010900069463046FFF7C0FC8020ADF800008DF8AF
:1010A00003508DF8024069460848FFF7B5FC04205C
:1010B000ADF800008DF803508DF8024069463046C7
:1010C000FFF7AAFCF8BD000000200140001001401D
:1010D0007047000038B54FF48054ADF80040102040
:1010E0008DF803000320064D8DF80200694628465E
:1010F000FFF792FC21462846FFF7E5FC38BD0000CB
:10110000001401400CB500222648009201920168AB
:1011100041F4803101604FF4A063016801F40031B3
:1011200001910099491C0091019911B900999942C6
:10113000F3D10168890333D5012101911A490A6865
:1011400042F010020A600A6822F003020A600A688C
:1011500042F002020A6041684160416841604168B2
:1011600041F480614160416821F47C114160416833
:1011700041F4E8114160016841F08071016001684B
:101180008901FCD5416821F003014160416841F0CB
:10119000020141604168C1F381010229FAD10CBD0D
:1011A00001920CBD00100240002002407047000078
:1011B0000C48016841F00101016041680A4A114090
:1011C00041600168094A11400160016821F48021F1
:1011D0000160416821F4FE0141604FF41F0181600C
:1011E000FFF790BF001002400000FFF8FFFFF6FE7F
:1011F00010B501218C07204600F066F800281BD0AE
:101200000121204600F051F80C490878401CC0B27A
:1012100008700A2810D300240C700949094A08688C
:10122000401C086013785B1C1370322800D30C60DC
:10123000BDE81040FFF740BA10BD00000A000020D2
:1012400000000020080000207FB501210846FFF7BC
:10125000E5FE6320ADF804004720ADF8000000244F
:101260004FF08045ADF80640ADF80240694628468B
:1012700000F040F80121284600F017F8012211463D
:10128000284600F02DF80121284600F011F81C2016
:101290008DF80C008DF80D4001208DF80E008DF8B2
:1012A0000F0003A8FFF77CFE7FBDC9430182704792
:1012B0000029018802D041F0010101E021F0010183
:1012C00001807047808C704702460020138A928903
:1012D0000B4202EA010202D0002A00D0012070472E
:1012E000002A828901D00A4300E08A438281704744
:1012F0008184704730B502881B4C1C4DA0420DD034
:10130000A8420BD0B0F1804F08D0194B984205D0BD
:10131000184B984202D0184B984203D122F0700328
:101320004A881A43154B984206D0154B984203D071
:1013300022F44073CA881A4302808A8882850A8808
:101340000285A0420AD0A84208D00E4A904205D099
:101350000D4A904202D00D4A904201D1097A01868D
:101360000121818230BD0000002C01400034014089
:101370000004004000080040000C00400010004045
:10138000001400400040014000440140004801407A
:101390000EB501210220FFF741FE0120ADF8040047
:1013A0004720ADF800001020ADF802006946024861
:1013B000FFF7A0FF0EBD0000000400400EB50121A4
:1013C0000420FFF72BFE4FF6FF70ADF80400472016
:1013D000ADF800000020ADF8020069460148FFF7B3
:1013E00089FF0EBD000800402DE9FF414FF4804504
:1013F000ADF8005048208DF803001E4F03248DF8EF
:10140000024069463846FFF707FBAE11ADF80060B1
:1014100010208DF803008DF8024069463846FFF72A
:10142000FBFA0E210120FFF7E3FA0C2001958DF85D
:10143000090000258DF808508DF80A5001A8FFF723
:101440007FFA4FF4E060FFF7DDFD28208DF80C00F7
:101450008DF80D508DF80E4001208DF80F0003A877
:10146000FFF79EFDFFF7AAFF31463846FFF72BFB3B
:10147000BDE8FF8100140140FEE7000008B54FF40D
:101480000040ADF8000010208DF8030003208DF817
:10149000020069460448FFF7BFFA4FF48051034841
:1014A000FFF711FB08BD00000020014000140140BF
:1014B00030380A2801D201207047002070474FF0D1
:1014C000E020016921F0040101617047FFF7F7FF97
:1014D000FFF76EFAFFF7D2FFFFF724FCFFF764FB7C
:1014E000FFF7B2FEFFF754FDFFF77EFFFFF7AEFDFB
:1014F000FFF7F0FD0D4C0E4E00254FF4004720780D
:101500000528FCD325706078401CC0B26070282884
:1015100006D365703846FFF785FC3068FFF76AFC34
:10152000FFF7DAF9FFF73AF8E9E7000008000020D2
:101530001C00002044697374616E63653A200043A7
:101540006F6D6D616E643A000400000800000000D9
:101550000000000200010000100000007C150008DF
:1015600000000020240000006C010008A015000805
:10157000240000206406000088010008000000002C
:101580002828282800000049000000000000000072
:10159000000000000000000000000000000000004B
:0400000508000131BD
:00000001FF
