:020000040800F2
:1000000088060020CD010008A70A0008E9080008BA
:10001000050A000805030008050F0008000000009D
:10002000000000000000000000000000550B000868
:100030001905000800000000210B0008310C000821
:10004000E7010008E7010008E7010008E7010008F0
:10005000E7010008E7010008E7010008E7010008E0
:10006000E7010008E7010008E7010008E7010008D0
:10007000E7010008E7010008E7010008E7010008C0
:10008000E7010008E7010008E7010008E7010008B0
:10009000E7010008E7010008E7010008E7010008A0
:1000A000E7010008E7010008E7010008E701000890
:1000B000750C0008E7010008E7010008E7010008E7
:1000C000E7010008E7010008E7010008E701000870
:1000D000E7010008E7010008E7010008E701000860
:1000E000ED050008E7010008E7010008E701000846
:1000F000E7010008E7010008E7010008E701000840
:10010000E7010008E7010008E7010008E70100082F
:10011000E7010008E7010008E7010008E70100081F
:10012000E7010008E7010008E7010008E70100080F
:1001300000F002F800F03AF80AA090E8000C8244BF
:100140008344AAF10107DA4501D100F02FF8AFF29C
:10015000090EBAE80F0013F0010F18BFFB1A43F0A5
:1001600001031847380E0000580E0000103A24BF53
:1001700078C878C1FAD8520724BF30C830C144BF0C
:1001800004680C607047000000230024002500264E
:10019000103A28BF78C1FBD8520728BF30C148BFEA
:1001A0000B6070471FB51FBD10B510BD00F031F8D2
:1001B0001146FFF7F7FF00F0C9FE00F04FF803B457
:1001C000FFF7F2FF03BC00F053F800000948804736
:1001D00009480047FEE7FEE7FEE7FEE7FEE7FEE729
:1001E000FEE7FEE7FEE7FEE704480549054A064B41
:1001F00070470000350C000831010008880000201D
:10020000880600208802002088020020704770477E
:100210007047754600F028F8AE460500694653461B
:1002200020F00700854618B020B5FFF7DDFFBDE8D8
:1002300020404FF000064FF000074FF000084FF04D
:10024000000B21F00701AC46ACE8C009ACE8C009DE
:10025000ACE8C009ACE8C0098D4670470446AFF36E
:1002600000802046FFF7ABFF0048704724000020C5
:1002700001491820ABBEFEE72600020070470000CF
:100280003EB51F4801680A2936D20068082805D201
:1002900000F03AF84FF4C87000F076F94FF4967415
:1002A0004FF4FA7502AA01A9684600F08BFA029889
:1002B000052805D3009A052A02D30199052903D2FE
:1002C00000F022F8204614E0904208D3884206D37A
:1002D00000F02EF84FF4167000F056F93EBD8A4239
:1002E00002D800F0F1F803E09142DBD200F032F8DE
:1002F000284600F049F9D5E7BDE83E4000F018B8BF
:100300001C000020FEE7000005496FF02700087080
:1003100004490870044908700449087070470000D7
:100320000400002005000020060000200700002037
:1003300004492820087004490870044908700449D9
:10034000087070470400002005000020060000200F
:100350000700002006496FF01300064A08702821A4
:100360001170054908700549322008707047000077
:1003700004000020050000200600002007000020E7
:100380002DE9F0414848494C4FF4005190F90020C4
:10039000474D8F102068002A1ADD904203D228466C
:1003A00000F00DFA02E0284600F007FA3946284628
:1003B00000F003FA3F48414E90F900103E480029F2
:1003C00028DD22688A420FD2394600F0F8F90EE0A3
:1003D000E9DA52429042E6D2284600F0EEF9394678
:1003E000284600F0ECF9E5E7394600F0E6F901218E
:1003F000304600F0E2F932484FF4007790F90000FF
:10040000002829DD2168814211D24021304600F0C8
:10041000D6F910E0E8DA226849428A42E4D2394645
:1004200000F0CBF90121304600F0C9F9E3E74021A3
:10043000304600F0C2F93946284600F0BEF921489E
:1004400090F90000002815DD2168814221D2102199
:10045000304600F0B4F920E0E9DA216840428142F8
:10046000E5D24021304600F0A8F93946284600F090
:10047000A6F9E4E70DDA21684042814209D2102151
:10048000304600F09AF93046BDE8F041042100F012
:1004900096B91021304600F090F93046BDE8F041A1
:1004A000042100F08AB900000400002000000020B0
:1004B0000020014005000020001001400014014010
:1004C000060000200700002006492820074A08707F
:1004D00005496FF01300087032211170044908704B
:1004E00070470000040000200500002006000020E6
:1004F00007000020044900200870044908700449DE
:1005000008700449087070470400002005000020AE
:100510000600002007000020704710B5044602E0E6
:100520008C2000F005F8641EE4B2F9D210BD000082
:1005300031B50C4D0098012184B2284600F012FC20
:100540002146284600F02EFC03E0284600F014FC6B
:100550000446012CF9D82846BDE83840002100F0B7
:1005600001BC00000004004000EBC0014FF0E0209F
:100570004161016941F0010101610169C903FCD5D3
:10058000002101618161704700B502464FF47A7322
:1005900002E01846FFF7E8FF521EFAD200BD000045
:1005A0000549C868401CC8600F2803D30020C860F4
:1005B00000F02EB9704700001400002002491220FC
:1005C00088709620FFF7E0BF0800002002490B204A
:1005D00088709620FFF7D8BF080000200249052048
:1005E00088709620FFF7D0BF0800002010B54FF4A8
:1005F0008064204600F010F8002806D0204600F065
:1006000005F8BDE8104000F071B910BD014908605F
:100610007047000014040140064A01460020126899
:10062000044B0A4014331B680B4202D0002A00D04E
:10063000012070470004014030B51A4A83790168EF
:1006400053B313688B431360111D0B680468A343F5
:100650000B60017911440B68046823430B60114B54
:10066000083319680468A14319601C1D21680568D6
:10067000A94321604179102905D011440A68006816
:1006800002430A6030BD196802681143196021688D
:1006900000680143216030BD0079104402688A433C
:1006A000026030BD0004014010B50121042000F0BB
:1006B00045FA0121082000F041FA0121102000F044
:1006C0003DFA0121202000F039FA0121402000F0FC
:1006D00035FA0121802000F031FA0121BDE81040F7
:1006E000080200F02BBA000010B58A0721F00304BD
:1006F0000649120F21440F238C6893409C438C6061
:100700008B68904003438B6010BD000000000140E7
:10071000F0B5CC78002204F00F03E40601D58C7804
:1007200023430C784FF00F0C14F0FF0F4FF0010E25
:100730001BD005680E880EFA02F42640A64210D19E
:1007400096000CFA06F725EA070703FA06F5CE78B5
:100750003D43282E02D0482E02D002E0446100E042
:100760000461521C082AE5D305600A88FF2A1CD9B7
:100770004468002202F108060EFA06F50E882E40A3
:10078000AE420ED196000CFA06F7BC4303FA06F708
:10079000CE783C43282E00D14561CE78482E00D13A
:1007A0000561521C082AE5D34460F0BD02460020D2
:1007B00092680A4200D00120704741617047016190
:1007C000704700002DE9F04115460E460746FFF739
:1007D00091FE00F01DF80D4C20682860FFF7FEFE2A
:1007E0006420FFF7D1FE00F013F820683060FFF7B7
:1007F000EDFEFFF7E3FE6420FFF7C6FE00F008F809
:1008000020683860BDE8F041FFF7E0BE1C00002022
:100810002DE9F047304F4FF4807631463846FFF7E8
:10082000CCFF2E4C012020702D4D0021284600F0D9
:10083000B9FA0121284600F095FA284600F09CFA02
:100840000B28FAD30220207031463846FFF7B7FF55
:100850000021284600F0A6FAA94600274EF6602897
:100860004FF480451F4E04E0484600F085FA4045AD
:100870000FD829463046FFF799FF0028F4D0002111
:10088000484600F08FFA0CE0484600F075FA404503
:1008900007DD2770A7604846BDE8F047002100F05B
:1008A00061BA29463046FFF781FF0128ECD04D465A
:1008B000484600F061FA60600021284600F052FAD4
:1008C00060684FF4FA6100EB0010400090FBF1F01B
:1008D000A0602770BDE8F0870014014014000020DC
:1008E00000080040000C0140FEE700002DE9F04741
:1008F00000240F20FFF711FE3A4E4FF4806739466F
:100900003046FFF753FF012865D03749282008708B
:1009100002E00120FFF701FE39463046FFF746FFAF
:100920000028F6D0DFF8C4900025B046002602E08B
:100930000120FFF7F2FD39464046FFF737FF002858
:10094000F6D102E00120FFF7E8FD39464046FFF707
:100950002DFF0028F6D006E00120FFF7DEFD641C25
:10096000E4B21E2C37D239464046FFF71FFF00285D
:10097000F2D119F805004946400809F80500082C8D
:1009800003D340F0800009F80500761C0024F6B27D
:10099000082ED0D36D1CEDB2042DC7D3C97899F8B9
:1009A0000200C943C9B2884215D11149432816D063
:1009B00005DC152809D040280DD1492006E044283F
:1009C0000BD0462807D1412000E04220087007499B
:1009D0000120491E0870BDE8F0874320F6E7442057
:1009E000F4E70000001401400D000020100000207A
:1009F0000C0000200249CA684240CA6070470000EB
:100A000000200140FEE70000F8B54FF40050ADF8BB
:100A1000000002208DF802001C4E10248DF80340C7
:100A200069463046FFF774FEE501ADF800506946AF
:100A30003046FFF76DFEADF8005069461448FFF7E9
:100A400067FE0120134DADF8000069462846FFF708
:100A50005FFE4020ADF8000069462846FFF758FECB
:100A60006001ADF8000069463046FFF751FEADF871
:100A7000004069462846FFF74BFE0420ADF8000011
:100A800069462846FFF744FEF8BD000000200140FB
:100A9000001001400014014010B5FFF7B5FFBDE89C
:100AA0001040FFF727BD704730B50F23C27801789B
:100AB0000125F2B1144A126801F1E02102F4E0626A
:100AC000C2F5E062120AC2F10404D3404278A240A7
:100AD00084781C401443220181F80024007800F03F
:100AE0001F018D404009800000F1E020C0F8005156
:100AF00030BD01F01F0085404809800000F1E02072
:100B0000C0F8805130BD00000CED00E00249084300
:100B100002490860704700000000FA050CED00E093
:100B200070470000044A0029D16901D0014300E068
:100B30008143D1617047000000100240044A00293F
:100B4000916901D0014300E0814391617047000049
:100B5000001002407047000038B54FF48054ADF8E3
:100B6000004010208DF803000320064D8DF8020090
:100B700069462846FFF7CCFD21462846FFF71FFEB1
:100B800038BD0000001401400CB500222648009238
:100B90000192016841F4803101604FF4A063016863
:100BA00001F4003101910099491C0091019911B99A
:100BB00000999942F3D10168890333D5012101914C
:100BC0001A490A6842F010020A600A6822F0030219
:100BD0000A600A6842F002020A60416841604168A6
:100BE0004160416841F480614160416821F47C11B9
:100BF0004160416841F4E8114160016841F0807151
:100C0000016001688901FCD5416821F00301416060
:100C1000416841F0020141604168C1F3810102294C
:100C2000FAD10CBD01920CBD001002400020024020
:100C3000704700000C48016841F001010160416803
:100C40000A4A114041600168094A11400160016887
:100C500021F480210160416821F4FE0141604FF4DC
:100C60001F018160FFF790BF001002400000FFF8F5
:100C7000FFFFF6FE70B501218C07204600F07EF8DC
:100C800000282ED00121204600F069F815490024E3
:100C90000878401CC0B208700A2804D312480C70AF
:100CA0000178491C017011490868401C086032280D
:100CB00000D30C60FFF764FB0D4D4FF48051287892
:100CC000401CC2B20B482A7003780B489A4202D8E3
:100CD000FFF775FD01E0FFF770FD2878C82800D305
:100CE0002C7070BD0B0000200800002000000020C8
:100CF0000E0000200A000020001401407FB50121F1
:100D00000846FFF70FFF6320ADF804004720ADF859
:100D1000000000244FF08045ADF80640ADF80240D9
:100D20006946284600F040F80121284600F017F8EF
:100D300001221146284600F02DF80121284600F036
:100D400011F81C208DF80C008DF80D4001208DF855
:100D50000E008DF80F0003A8FFF7A6FE7FBDC94364
:100D6000018270470029018802D041F0010101E0B1
:100D700021F0010101807047808C704702460020FD
:100D8000138A92890B4202EA010202D0002A00D0A3
:100D900001207047002A828901D00A4300E08A437B
:100DA000828170478184704730B502881B4C1C4D8E
:100DB000A0420DD0A8420BD0B0F1804F08D0194B03
:100DC000984205D0184B984202D0184B984203D154
:100DD00022F070034A881A43154B984206D0154BEF
:100DE000984203D022F44073CA881A4302808A884A
:100DF00082850A880285A0420AD0A84208D00E4AFD
:100E0000904205D00D4A904202D00D4A904201D145
:100E1000097A01860121818230BD0000002C014049
:100E2000003401400004004000080040000C004075
:100E30000010004000140040004001400044014008
:100E4000004801400EB501210420FFF76BFE4FF66C
:100E5000FF70ADF804004720ADF800000020ADF8A9
:100E6000020069460148FFF79FFF0EBD00080040E1
:100E70002DE9FF414FF48045ADF8005048208DF832
:100E8000030003248DF8024069461C48FFF740FC2C
:100E9000AE11ADF8006010208DF80300184F8DF8EA
:100EA000024069463846FFF733FC0E210120FFF768
:100EB0001BFC0C2001958DF8090000258DF80850C9
:100EC0008DF80A5001A8FFF7B7FB4FF4E060FFF779
:100ED0001DFE28208DF80C008DF80D508DF80E4069
:100EE00001208DF80F0003A8FFF7DEFDFFF7AAFF32
:100EF00031463846FFF763FCBDE8FF81000C014036
:100F000000140140FEE7000008B54FF40040ADF8C2
:100F1000000010208DF8030003208DF802006946C0
:100F20000448FFF7F5FB4FF480510348FFF747FCF7
:100F300008BD000000200140001401404FF0E020F7
:100F4000016921F00401016170470000FFF7F6FF1D
:100F5000FFF7AAFBFFF7D8FFFFF7D0FEFFF79CFDD6
:100F6000FFF786FFFFF7F8FD0B4C00254FF4004616
:100F700020780528FCD325706078401CC1B26170D0
:100F8000282903D365703046FFF734FDFFF708FBCF
:100F9000FFF776F9ECE7000008000020BC0F00081E
:100FA00000000020240000006C010008E00F000891
:100FB00024000020640600008801000800000000F2
:100FC0002828282800000B0049000000000000002D
:100FD0000000000000000000000000000000000011
:0400000508000131BD
:00000001FF
